{
  "_format": "hh-sol-artifact-1",
  "contractName": "PlayzProfile",
  "sourceName": "contracts/PlayzProfile.sol",
  "abi": [
    {
      "inputs": [
        {
          "internalType": "string",
          "name": "_profileURI",
          "type": "string"
        }
      ],
      "stateMutability": "nonpayable",
      "type": "constructor"
    },
    {
      "anonymous": false,
      "inputs": [
        {
          "indexed": true,
          "internalType": "address",
          "name": "account",
          "type": "address"
        },
        {
          "indexed": true,
          "internalType": "address",
          "name": "operator",
          "type": "address"
        },
        {
          "indexed": false,
          "internalType": "bool",
          "name": "approved",
          "type": "bool"
        }
      ],
      "name": "ApprovalForAll",
      "type": "event"
    },
    {
      "anonymous": false,
      "inputs": [
        {
          "indexed": false,
          "internalType": "uint256",
          "name": "tokenId",
          "type": "uint256"
        },
        {
          "indexed": false,
          "internalType": "string",
          "name": "tokenURI",
          "type": "string"
        },
        {
          "indexed": false,
          "internalType": "uint256",
          "name": "tokenSupply",
          "type": "uint256"
        },
        {
          "indexed": false,
          "internalType": "uint256",
          "name": "tokenPrice",
          "type": "uint256"
        },
        {
          "indexed": false,
          "internalType": "uint256",
          "name": "royaltyPercentage",
          "type": "uint256"
        }
      ],
      "name": "EditionCreated",
      "type": "event"
    },
    {
      "anonymous": false,
      "inputs": [
        {
          "indexed": true,
          "internalType": "address",
          "name": "to",
          "type": "address"
        },
        {
          "indexed": false,
          "internalType": "uint256",
          "name": "tokenId",
          "type": "uint256"
        },
        {
          "indexed": false,
          "internalType": "uint256",
          "name": "amount",
          "type": "uint256"
        }
      ],
      "name": "EditionMinted",
      "type": "event"
    },
    {
      "anonymous": false,
      "inputs": [
        {
          "indexed": false,
          "internalType": "uint256",
          "name": "tokenId",
          "type": "uint256"
        }
      ],
      "name": "MemberEditionSet",
      "type": "event"
    },
    {
      "anonymous": false,
      "inputs": [
        {
          "indexed": false,
          "internalType": "string",
          "name": "tokenURI",
          "type": "string"
        },
        {
          "indexed": false,
          "internalType": "uint256",
          "name": "tokenSupply",
          "type": "uint256"
        },
        {
          "indexed": false,
          "internalType": "uint256",
          "name": "tokenPrice",
          "type": "uint256"
        },
        {
          "indexed": false,
          "internalType": "uint256",
          "name": "royaltyPercentage",
          "type": "uint256"
        }
      ],
      "name": "MembershipCreated",
      "type": "event"
    },
    {
      "anonymous": false,
      "inputs": [
        {
          "indexed": true,
          "internalType": "address",
          "name": "to",
          "type": "address"
        }
      ],
      "name": "MembershipMinted",
      "type": "event"
    },
    {
      "anonymous": false,
      "inputs": [
        {
          "indexed": true,
          "internalType": "address",
          "name": "previousOwner",
          "type": "address"
        },
        {
          "indexed": true,
          "internalType": "address",
          "name": "newOwner",
          "type": "address"
        }
      ],
      "name": "OwnershipTransferred",
      "type": "event"
    },
    {
      "anonymous": false,
      "inputs": [
        {
          "indexed": false,
          "internalType": "string",
          "name": "newProfileURI",
          "type": "string"
        }
      ],
      "name": "ProfileURISet",
      "type": "event"
    },
    {
      "anonymous": false,
      "inputs": [
        {
          "indexed": true,
          "internalType": "address",
          "name": "operator",
          "type": "address"
        },
        {
          "indexed": true,
          "internalType": "address",
          "name": "from",
          "type": "address"
        },
        {
          "indexed": true,
          "internalType": "address",
          "name": "to",
          "type": "address"
        },
        {
          "indexed": false,
          "internalType": "uint256[]",
          "name": "ids",
          "type": "uint256[]"
        },
        {
          "indexed": false,
          "internalType": "uint256[]",
          "name": "values",
          "type": "uint256[]"
        }
      ],
      "name": "TransferBatch",
      "type": "event"
    },
    {
      "anonymous": false,
      "inputs": [
        {
          "indexed": true,
          "internalType": "address",
          "name": "operator",
          "type": "address"
        },
        {
          "indexed": true,
          "internalType": "address",
          "name": "from",
          "type": "address"
        },
        {
          "indexed": true,
          "internalType": "address",
          "name": "to",
          "type": "address"
        },
        {
          "indexed": false,
          "internalType": "uint256",
          "name": "id",
          "type": "uint256"
        },
        {
          "indexed": false,
          "internalType": "uint256",
          "name": "value",
          "type": "uint256"
        }
      ],
      "name": "TransferSingle",
      "type": "event"
    },
    {
      "anonymous": false,
      "inputs": [
        {
          "indexed": false,
          "internalType": "string",
          "name": "value",
          "type": "string"
        },
        {
          "indexed": true,
          "internalType": "uint256",
          "name": "id",
          "type": "uint256"
        }
      ],
      "name": "URI",
      "type": "event"
    },
    {
      "inputs": [
        {
          "internalType": "address",
          "name": "account",
          "type": "address"
        },
        {
          "internalType": "uint256",
          "name": "id",
          "type": "uint256"
        }
      ],
      "name": "balanceOf",
      "outputs": [
        {
          "internalType": "uint256",
          "name": "",
          "type": "uint256"
        }
      ],
      "stateMutability": "view",
      "type": "function"
    },
    {
      "inputs": [
        {
          "internalType": "address[]",
          "name": "accounts",
          "type": "address[]"
        },
        {
          "internalType": "uint256[]",
          "name": "ids",
          "type": "uint256[]"
        }
      ],
      "name": "balanceOfBatch",
      "outputs": [
        {
          "internalType": "uint256[]",
          "name": "",
          "type": "uint256[]"
        }
      ],
      "stateMutability": "view",
      "type": "function"
    },
    {
      "inputs": [
        {
          "internalType": "string",
          "name": "_tokenURI",
          "type": "string"
        },
        {
          "internalType": "uint256",
          "name": "_tokenSupply",
          "type": "uint256"
        },
        {
          "internalType": "uint256",
          "name": "_tokenPrice",
          "type": "uint256"
        },
        {
          "internalType": "uint256",
          "name": "_royaltyPercentage",
          "type": "uint256"
        },
        {
          "internalType": "bool",
          "name": "_setMemberEdition",
          "type": "bool"
        }
      ],
      "name": "createEdition",
      "outputs": [],
      "stateMutability": "nonpayable",
      "type": "function"
    },
    {
      "inputs": [],
      "name": "currentTokenId",
      "outputs": [
        {
          "internalType": "uint256",
          "name": "",
          "type": "uint256"
        }
      ],
      "stateMutability": "view",
      "type": "function"
    },
    {
      "inputs": [
        {
          "internalType": "address",
          "name": "account",
          "type": "address"
        },
        {
          "internalType": "address",
          "name": "operator",
          "type": "address"
        }
      ],
      "name": "isApprovedForAll",
      "outputs": [
        {
          "internalType": "bool",
          "name": "",
          "type": "bool"
        }
      ],
      "stateMutability": "view",
      "type": "function"
    },
    {
      "inputs": [
        {
          "internalType": "uint256",
          "name": "_tokenId",
          "type": "uint256"
        },
        {
          "internalType": "uint256",
          "name": "amount",
          "type": "uint256"
        }
      ],
      "name": "mintEdition",
      "outputs": [],
      "stateMutability": "payable",
      "type": "function"
    },
    {
      "inputs": [],
      "name": "mintMembership",
      "outputs": [],
      "stateMutability": "payable",
      "type": "function"
    },
    {
      "inputs": [],
      "name": "owner",
      "outputs": [
        {
          "internalType": "address",
          "name": "",
          "type": "address"
        }
      ],
      "stateMutability": "view",
      "type": "function"
    },
    {
      "inputs": [],
      "name": "profileURI",
      "outputs": [
        {
          "internalType": "string",
          "name": "",
          "type": "string"
        }
      ],
      "stateMutability": "view",
      "type": "function"
    },
    {
      "inputs": [],
      "name": "renounceOwnership",
      "outputs": [],
      "stateMutability": "nonpayable",
      "type": "function"
    },
    {
      "inputs": [
        {
          "internalType": "address",
          "name": "from",
          "type": "address"
        },
        {
          "internalType": "address",
          "name": "to",
          "type": "address"
        },
        {
          "internalType": "uint256[]",
          "name": "ids",
          "type": "uint256[]"
        },
        {
          "internalType": "uint256[]",
          "name": "amounts",
          "type": "uint256[]"
        },
        {
          "internalType": "bytes",
          "name": "data",
          "type": "bytes"
        }
      ],
      "name": "safeBatchTransferFrom",
      "outputs": [],
      "stateMutability": "nonpayable",
      "type": "function"
    },
    {
      "inputs": [
        {
          "internalType": "address",
          "name": "from",
          "type": "address"
        },
        {
          "internalType": "address",
          "name": "to",
          "type": "address"
        },
        {
          "internalType": "uint256",
          "name": "id",
          "type": "uint256"
        },
        {
          "internalType": "uint256",
          "name": "amount",
          "type": "uint256"
        },
        {
          "internalType": "bytes",
          "name": "data",
          "type": "bytes"
        }
      ],
      "name": "safeTransferFrom",
      "outputs": [],
      "stateMutability": "nonpayable",
      "type": "function"
    },
    {
      "inputs": [
        {
          "internalType": "address",
          "name": "operator",
          "type": "address"
        },
        {
          "internalType": "bool",
          "name": "approved",
          "type": "bool"
        }
      ],
      "name": "setApprovalForAll",
      "outputs": [],
      "stateMutability": "nonpayable",
      "type": "function"
    },
    {
      "inputs": [
        {
          "internalType": "string",
          "name": "_profileURI",
          "type": "string"
        }
      ],
      "name": "setProfileURI",
      "outputs": [],
      "stateMutability": "nonpayable",
      "type": "function"
    },
    {
      "inputs": [
        {
          "internalType": "bytes4",
          "name": "interfaceId",
          "type": "bytes4"
        }
      ],
      "name": "supportsInterface",
      "outputs": [
        {
          "internalType": "bool",
          "name": "",
          "type": "bool"
        }
      ],
      "stateMutability": "view",
      "type": "function"
    },
    {
      "inputs": [
        {
          "internalType": "address",
          "name": "newOwner",
          "type": "address"
        }
      ],
      "name": "transferOwnership",
      "outputs": [],
      "stateMutability": "nonpayable",
      "type": "function"
    },
    {
      "inputs": [
        {
          "internalType": "uint256",
          "name": "tokenId",
          "type": "uint256"
        }
      ],
      "name": "uri",
      "outputs": [
        {
          "internalType": "string",
          "name": "",
          "type": "string"
        }
      ],
      "stateMutability": "view",
      "type": "function"
    },
    {
      "stateMutability": "payable",
      "type": "receive"
    }
  ],
  "bytecode": "0x608060405260405180602001604052806000815250600390816200002491906200083d565b503480156200003257600080fd5b5060405162004d1b38038062004d1b833981810160405281019062000058919062000a88565b806200006a816200010860201b60201c565b506200008b6200007f6200011d60201b60201c565b6200012560201b60201c565b6001600681905550620000a481620001eb60201b60201c565b620000c66000604051806020016040528060008152506200024960201b60201c565b620000db6000612710620002ba60201b60201c565b620000ee600080620002ef60201b60201c565b620001016000806200030b60201b60201c565b5062000d2c565b80600290816200011991906200083d565b5050565b600033905090565b6000600560009054906101000a900473ffffffffffffffffffffffffffffffffffffffff16905081600560006101000a81548173ffffffffffffffffffffffffffffffffffffffff021916908373ffffffffffffffffffffffffffffffffffffffff1602179055508173ffffffffffffffffffffffffffffffffffffffff168173ffffffffffffffffffffffffffffffffffffffff167f8be0079c531659141344cd1fd0a4f28419497f9722a3daafe3b4186f6b6457e060405160405180910390a35050565b620001fb6200036e60201b60201c565b80600790816200020c91906200083d565b507f80947a58c5521058903cdae1467afcdb21b9ecf26ce2d41821232b2ee0ba907c816040516200023e919062000b2b565b60405180910390a150565b806004600084815260200190815260200160002090816200026b91906200083d565b50817f6bb7ff708619ba0610cba295a58592e0451dee2622938c8755667688daf3529b6200029f84620003ff60201b60201c565b604051620002ae919062000b2b565b60405180910390a25050565b8060096000848152602001908152602001600020819055506000600a6000848152602001908152602001600020819055505050565b80600b6000848152602001908152602001600020819055505050565b606481111562000352576040517f08c379a0000000000000000000000000000000000000000000000000000000008152600401620003499062000b9f565b60405180910390fd5b80600c6000848152602001908152602001600020819055505050565b6200037e6200011d60201b60201c565b73ffffffffffffffffffffffffffffffffffffffff16620003a4620004fd60201b60201c565b73ffffffffffffffffffffffffffffffffffffffff1614620003fd576040517f08c379a0000000000000000000000000000000000000000000000000000000008152600401620003f49062000c11565b60405180910390fd5b565b6060600060046000848152602001908152602001600020805462000423906200062c565b80601f016020809104026020016040519081016040528092919081815260200182805462000451906200062c565b8015620004a25780601f106200047657610100808354040283529160200191620004a2565b820191906000526020600020905b8154815290600101906020018083116200048457829003601f168201915b505050505090506000815111620004cf57620004c9836200052760201b62000fdb1760201c565b620004f5565b600381604051602001620004e592919062000d04565b6040516020818303038152906040525b915050919050565b6000600560009054906101000a900473ffffffffffffffffffffffffffffffffffffffff16905090565b60606002805462000538906200062c565b80601f016020809104026020016040519081016040528092919081815260200182805462000566906200062c565b8015620005b75780601f106200058b57610100808354040283529160200191620005b7565b820191906000526020600020905b8154815290600101906020018083116200059957829003601f168201915b50505050509050919050565b600081519050919050565b7f4e487b7100000000000000000000000000000000000000000000000000000000600052604160045260246000fd5b7f4e487b7100000000000000000000000000000000000000000000000000000000600052602260045260246000fd5b600060028204905060018216806200064557607f821691505b6020821081036200065b576200065a620005fd565b5b50919050565b60008190508160005260206000209050919050565b60006020601f8301049050919050565b600082821b905092915050565b600060088302620006c57fffffffffffffffffffffffffffffffffffffffffffffffffffffffffffffffff8262000686565b620006d1868362000686565b95508019841693508086168417925050509392505050565b6000819050919050565b6000819050919050565b60006200071e620007186200071284620006e9565b620006f3565b620006e9565b9050919050565b6000819050919050565b6200073a83620006fd565b62000752620007498262000725565b84845462000693565b825550505050565b600090565b620007696200075a565b620007768184846200072f565b505050565b5b818110156200079e57620007926000826200075f565b6001810190506200077c565b5050565b601f821115620007ed57620007b78162000661565b620007c28462000676565b81016020851015620007d2578190505b620007ea620007e18562000676565b8301826200077b565b50505b505050565b600082821c905092915050565b60006200081260001984600802620007f2565b1980831691505092915050565b60006200082d8383620007ff565b9150826002028217905092915050565b6200084882620005c3565b67ffffffffffffffff811115620008645762000863620005ce565b5b6200087082546200062c565b6200087d828285620007a2565b600060209050601f831160018114620008b55760008415620008a0578287015190505b620008ac85826200081f565b8655506200091c565b601f198416620008c58662000661565b60005b82811015620008ef57848901518255600182019150602085019450602081019050620008c8565b868310156200090f57848901516200090b601f891682620007ff565b8355505b6001600288020188555050505b505050505050565b6000604051905090565b600080fd5b600080fd5b600080fd5b600080fd5b6000601f19601f8301169050919050565b6200095e8262000942565b810181811067ffffffffffffffff8211171562000980576200097f620005ce565b5b80604052505050565b60006200099562000924565b9050620009a3828262000953565b919050565b600067ffffffffffffffff821115620009c657620009c5620005ce565b5b620009d18262000942565b9050602081019050919050565b60005b83811015620009fe578082015181840152602081019050620009e1565b60008484015250505050565b600062000a2162000a1b84620009a8565b62000989565b90508281526020810184848401111562000a405762000a3f6200093d565b5b62000a4d848285620009de565b509392505050565b600082601f83011262000a6d5762000a6c62000938565b5b815162000a7f84826020860162000a0a565b91505092915050565b60006020828403121562000aa15762000aa06200092e565b5b600082015167ffffffffffffffff81111562000ac25762000ac162000933565b5b62000ad08482850162000a55565b91505092915050565b600082825260208201905092915050565b600062000af782620005c3565b62000b03818562000ad9565b935062000b15818560208601620009de565b62000b208162000942565b840191505092915050565b6000602082019050818103600083015262000b47818462000aea565b905092915050565b7f526f79616c74792063616e6e6f74206265206d6f7265207468616e2031303025600082015250565b600062000b8760208362000ad9565b915062000b948262000b4f565b602082019050919050565b6000602082019050818103600083015262000bba8162000b78565b9050919050565b7f4f776e61626c653a2063616c6c6572206973206e6f7420746865206f776e6572600082015250565b600062000bf960208362000ad9565b915062000c068262000bc1565b602082019050919050565b6000602082019050818103600083015262000c2c8162000bea565b9050919050565b600081905092915050565b6000815462000c4d816200062c565b62000c59818662000c33565b9450600182166000811462000c77576001811462000c8d5762000cc4565b60ff198316865281151582028601935062000cc4565b62000c988562000661565b60005b8381101562000cbc5781548189015260018201915060208101905062000c9b565b838801955050505b50505092915050565b600062000cda82620005c3565b62000ce6818562000c33565b935062000cf8818560208601620009de565b80840191505092915050565b600062000d12828562000c3e565b915062000d20828462000ccd565b91508190509392505050565b613fdf8062000d3c6000396000f3fe6080604052600436106101005760003560e01c8063715018a611610095578063963310af11610064578063963310af1461030e578063a22cb46514610339578063e985e9c514610362578063f242432a1461039f578063f2fde38b146103c857610107565b8063715018a614610287578063786d6b971461029e5780637c2f39f7146102c75780638da5cb5b146102e357610107565b80630e89341c116100d15780630e89341c146101da5780632eb2c2d6146102175780634e1273f414610240578063712319081461027d57610107565b80629a9b7b1461010c578062fdd58e1461013757806301ffc9a7146101745780630df55aaa146101b157610107565b3661010757005b600080fd5b34801561011857600080fd5b506101216103f1565b60405161012e9190612281565b60405180910390f35b34801561014357600080fd5b5061015e6004803603810190610159919061233a565b610402565b60405161016b9190612281565b60405180910390f35b34801561018057600080fd5b5061019b600480360381019061019691906123d2565b6104ca565b6040516101a8919061241a565b60405180910390f35b3480156101bd57600080fd5b506101d860048036038101906101d391906125a7565b6105ac565b005b3480156101e657600080fd5b5061020160048036038101906101fc919061263e565b61063f565b60405161020e91906126ea565b60405180910390f35b34801561022357600080fd5b5061023e60048036038101906102399190612875565b610724565b005b34801561024c57600080fd5b5061026760048036038101906102629190612a07565b6107c5565b6040516102749190612b3d565b60405180910390f35b6102856108de565b005b34801561029357600080fd5b5061029c610ac8565b005b3480156102aa57600080fd5b506102c560048036038101906102c09190612b5f565b610adc565b005b6102e160048036038101906102dc9190612ba8565b610b2e565b005b3480156102ef57600080fd5b506102f8610d55565b6040516103059190612bf7565b60405180910390f35b34801561031a57600080fd5b50610323610d7f565b60405161033091906126ea565b60405180910390f35b34801561034557600080fd5b50610360600480360381019061035b9190612c12565b610e0d565b005b34801561036e57600080fd5b5061038960048036038101906103849190612c52565b610e23565b604051610396919061241a565b60405180910390f35b3480156103ab57600080fd5b506103c660048036038101906103c19190612c92565b610eb7565b005b3480156103d457600080fd5b506103ef60048036038101906103ea9190612d29565b610f58565b005b60006103fd600861106f565b905090565b60008073ffffffffffffffffffffffffffffffffffffffff168373ffffffffffffffffffffffffffffffffffffffff1603610472576040517f08c379a000000000000000000000000000000000000000000000000000000000815260040161046990612dc8565b60405180910390fd5b60008083815260200190815260200160002060008473ffffffffffffffffffffffffffffffffffffffff1673ffffffffffffffffffffffffffffffffffffffff16815260200190815260200160002054905092915050565b60007fd9b67a26000000000000000000000000000000000000000000000000000000007bffffffffffffffffffffffffffffffffffffffffffffffffffffffff1916827bffffffffffffffffffffffffffffffffffffffffffffffffffffffff1916148061059557507f0e89341c000000000000000000000000000000000000000000000000000000007bffffffffffffffffffffffffffffffffffffffffffffffffffffffff1916827bffffffffffffffffffffffffffffffffffffffffffffffffffffffff1916145b806105a557506105a48261107d565b5b9050919050565b6105b46110e7565b60006105be611165565b90506105ca8187611180565b6105d481866111e5565b6105de818561121a565b6105e88184611236565b81156105f8576105f781611296565b5b7f91631f4f8f27505eef8978045d2f2a8c021d29f68d825e914a1bb4aa78421c9a818787878760405161062f959493929190612de8565b60405180910390a1505050505050565b6060600060046000848152602001908152602001600020805461066190612e71565b80601f016020809104026020016040519081016040528092919081815260200182805461068d90612e71565b80156106da5780601f106106af576101008083540402835291602001916106da565b820191906000526020600020905b8154815290600101906020018083116106bd57829003601f168201915b5050505050905060008151116106f8576106f383610fdb565b61071c565b60038160405160200161070c929190612f76565b6040516020818303038152906040525b915050919050565b61072c611304565b73ffffffffffffffffffffffffffffffffffffffff168573ffffffffffffffffffffffffffffffffffffffff16148061077257506107718561076c611304565b610e23565b5b6107b1576040517f08c379a00000000000000000000000000000000000000000000000000000000081526004016107a89061300c565b60405180910390fd5b6107be858585858561130c565b5050505050565b6060815183511461080b576040517f08c379a00000000000000000000000000000000000000000000000000000000081526004016108029061309e565b60405180910390fd5b6000835167ffffffffffffffff81111561082857610827612450565b5b6040519080825280602002602001820160405280156108565781602001602082028036833780820191505090505b50905060005b84518110156108d3576108a385828151811061087b5761087a6130be565b5b6020026020010151858381518110610896576108956130be565b5b6020026020010151610402565b8282815181106108b6576108b56130be565b5b602002602001018181525050806108cc9061311c565b905061085c565b508091505092915050565b6108e661162d565b60006108f3336000610402565b14610933576040517f08c379a000000000000000000000000000000000000000000000000000000000815260040161092a906131b0565b60405180910390fd5b60096000808152602001908152602001600020546001600a60008081526020019081526020016000205461096791906131d0565b11156109a8576040517f08c379a000000000000000000000000000000000000000000000000000000000815260040161099f90613250565b60405180910390fd5b6000600b6000808152602001908152602001600020549050803414610a02576040517f08c379a00000000000000000000000000000000000000000000000000000000081526004016109f9906132bc565b60405180910390fd5b6001600a60008081526020019081526020016000206000828254610a2691906131d0565b92505081905550610a4a33600060016040518060200160405280600081525061167c565b610a7a34610a56610d55565b73ffffffffffffffffffffffffffffffffffffffff1661182c90919063ffffffff16565b3373ffffffffffffffffffffffffffffffffffffffff167fe9222f18c7bd5a0ccd9b42bd890bcc13bdf644a38c9460203deefa197f86e3d260405160405180910390a250610ac6611920565b565b610ad06110e7565b610ada600061192a565b565b610ae46110e7565b8060079081610af39190613473565b507f80947a58c5521058903cdae1467afcdb21b9ecf26ce2d41821232b2ee0ba907c81604051610b2391906126ea565b60405180910390a150565b610b3661162d565b600d600083815260200190815260200160002060009054906101000a900460ff1615610baa576000610b69336000610402565b11610ba9576040517f08c379a0000000000000000000000000000000000000000000000000000000008152600401610ba0906135b7565b60405180910390fd5b5b600960008381526020019081526020016000205481600a600085815260200190815260200160002054610bdd91906131d0565b1115610c1e576040517f08c379a0000000000000000000000000000000000000000000000000000000008152600401610c1590613250565b60405180910390fd5b600081600b600085815260200190815260200160002054610c3f91906135d7565b9050803414610c83576040517f08c379a0000000000000000000000000000000000000000000000000000000008152600401610c7a906132bc565b60405180910390fd5b81600a60008581526020019081526020016000206000828254610ca691906131d0565b92505081905550610cc83384846040518060200160405280600081525061167c565b610cf834610cd4610d55565b73ffffffffffffffffffffffffffffffffffffffff1661182c90919063ffffffff16565b3373ffffffffffffffffffffffffffffffffffffffff167fe1b60c9e07632933648666e5ede8b3b329ddfa2ab98c51b1a5b4b22ab4f1349c8484604051610d40929190613619565b60405180910390a250610d51611920565b5050565b6000600560009054906101000a900473ffffffffffffffffffffffffffffffffffffffff16905090565b60078054610d8c90612e71565b80601f0160208091040260200160405190810160405280929190818152602001828054610db890612e71565b8015610e055780601f10610dda57610100808354040283529160200191610e05565b820191906000526020600020905b815481529060010190602001808311610de857829003601f168201915b505050505081565b610e1f610e18611304565b83836119f0565b5050565b6000600160008473ffffffffffffffffffffffffffffffffffffffff1673ffffffffffffffffffffffffffffffffffffffff16815260200190815260200160002060008373ffffffffffffffffffffffffffffffffffffffff1673ffffffffffffffffffffffffffffffffffffffff16815260200190815260200160002060009054906101000a900460ff16905092915050565b610ebf611304565b73ffffffffffffffffffffffffffffffffffffffff168573ffffffffffffffffffffffffffffffffffffffff161480610f055750610f0485610eff611304565b610e23565b5b610f44576040517f08c379a0000000000000000000000000000000000000000000000000000000008152600401610f3b9061300c565b60405180910390fd5b610f518585858585611b5c565b5050505050565b610f606110e7565b600073ffffffffffffffffffffffffffffffffffffffff168173ffffffffffffffffffffffffffffffffffffffff1603610fcf576040517f08c379a0000000000000000000000000000000000000000000000000000000008152600401610fc6906136b4565b60405180910390fd5b610fd88161192a565b50565b606060028054610fea90612e71565b80601f016020809104026020016040519081016040528092919081815260200182805461101690612e71565b80156110635780601f1061103857610100808354040283529160200191611063565b820191906000526020600020905b81548152906001019060200180831161104657829003601f168201915b50505050509050919050565b600081600001549050919050565b60007f01ffc9a7000000000000000000000000000000000000000000000000000000007bffffffffffffffffffffffffffffffffffffffffffffffffffffffff1916827bffffffffffffffffffffffffffffffffffffffffffffffffffffffff1916149050919050565b6110ef611304565b73ffffffffffffffffffffffffffffffffffffffff1661110d610d55565b73ffffffffffffffffffffffffffffffffffffffff1614611163576040517f08c379a000000000000000000000000000000000000000000000000000000000815260040161115a90613720565b60405180910390fd5b565b60006111716008611df7565b61117b600861106f565b905090565b806004600084815260200190815260200160002090816111a09190613473565b50817f6bb7ff708619ba0610cba295a58592e0451dee2622938c8755667688daf3529b6111cc8461063f565b6040516111d991906126ea565b60405180910390a25050565b8060096000848152602001908152602001600020819055506000600a6000848152602001908152602001600020819055505050565b80600b6000848152602001908152602001600020819055505050565b606481111561127a576040517f08c379a00000000000000000000000000000000000000000000000000000000081526004016112719061378c565b60405180910390fd5b80600c6000848152602001908152602001600020819055505050565b61129e6110e7565b6001600d600083815260200190815260200160002060006101000a81548160ff0219169083151502179055507fae101192cb3f18f09d06f98ca6d8b65a6cb3536f8a7fce5b5649a4655e3f79bb816040516112f99190612281565b60405180910390a150565b600033905090565b8151835114611350576040517f08c379a00000000000000000000000000000000000000000000000000000000081526004016113479061381e565b60405180910390fd5b600073ffffffffffffffffffffffffffffffffffffffff168473ffffffffffffffffffffffffffffffffffffffff16036113bf576040517f08c379a00000000000000000000000000000000000000000000000000000000081526004016113b6906138b0565b60405180910390fd5b60006113c9611304565b90506113d9818787878787611e0d565b60005b845181101561158a5760008582815181106113fa576113f96130be565b5b602002602001015190506000858381518110611419576114186130be565b5b60200260200101519050600080600084815260200190815260200160002060008b73ffffffffffffffffffffffffffffffffffffffff1673ffffffffffffffffffffffffffffffffffffffff168152602001908152602001600020549050818110156114ba576040517f08c379a00000000000000000000000000000000000000000000000000000000081526004016114b190613942565b60405180910390fd5b81810360008085815260200190815260200160002060008c73ffffffffffffffffffffffffffffffffffffffff1673ffffffffffffffffffffffffffffffffffffffff168152602001908152602001600020819055508160008085815260200190815260200160002060008b73ffffffffffffffffffffffffffffffffffffffff1673ffffffffffffffffffffffffffffffffffffffff168152602001908152602001600020600082825461156f91906131d0565b92505081905550505050806115839061311c565b90506113dc565b508473ffffffffffffffffffffffffffffffffffffffff168673ffffffffffffffffffffffffffffffffffffffff168273ffffffffffffffffffffffffffffffffffffffff167f4a39dc06d4c0dbc64b70af90fd698a233a518aa5d07e595d983b8c0526c8f7fb8787604051611601929190613962565b60405180910390a4611617818787878787611e15565b611625818787878787611e1d565b505050505050565b600260065403611672576040517f08c379a0000000000000000000000000000000000000000000000000000000008152600401611669906139e5565b60405180910390fd5b6002600681905550565b600073ffffffffffffffffffffffffffffffffffffffff168473ffffffffffffffffffffffffffffffffffffffff16036116eb576040517f08c379a00000000000000000000000000000000000000000000000000000000081526004016116e290613a77565b60405180910390fd5b60006116f5611304565b9050600061170285611ff4565b9050600061170f85611ff4565b905061172083600089858589611e0d565b8460008088815260200190815260200160002060008973ffffffffffffffffffffffffffffffffffffffff1673ffffffffffffffffffffffffffffffffffffffff168152602001908152602001600020600082825461177f91906131d0565b925050819055508673ffffffffffffffffffffffffffffffffffffffff16600073ffffffffffffffffffffffffffffffffffffffff168473ffffffffffffffffffffffffffffffffffffffff167fc3d58168c5ae7397731d063d5bbf3d657854427343f4c083240f7aacaa2d0f6289896040516117fd929190613619565b60405180910390a461181483600089858589611e15565b6118238360008989898961206e565b50505050505050565b8047101561186f576040517f08c379a000000000000000000000000000000000000000000000000000000000815260040161186690613ae3565b60405180910390fd5b60008273ffffffffffffffffffffffffffffffffffffffff168260405161189590613b34565b60006040518083038185875af1925050503d80600081146118d2576040519150601f19603f3d011682016040523d82523d6000602084013e6118d7565b606091505b505090508061191b576040517f08c379a000000000000000000000000000000000000000000000000000000000815260040161191290613bbb565b60405180910390fd5b505050565b6001600681905550565b6000600560009054906101000a900473ffffffffffffffffffffffffffffffffffffffff16905081600560006101000a81548173ffffffffffffffffffffffffffffffffffffffff021916908373ffffffffffffffffffffffffffffffffffffffff1602179055508173ffffffffffffffffffffffffffffffffffffffff168173ffffffffffffffffffffffffffffffffffffffff167f8be0079c531659141344cd1fd0a4f28419497f9722a3daafe3b4186f6b6457e060405160405180910390a35050565b8173ffffffffffffffffffffffffffffffffffffffff168373ffffffffffffffffffffffffffffffffffffffff1603611a5e576040517f08c379a0000000000000000000000000000000000000000000000000000000008152600401611a5590613c4d565b60405180910390fd5b80600160008573ffffffffffffffffffffffffffffffffffffffff1673ffffffffffffffffffffffffffffffffffffffff16815260200190815260200160002060008473ffffffffffffffffffffffffffffffffffffffff1673ffffffffffffffffffffffffffffffffffffffff16815260200190815260200160002060006101000a81548160ff0219169083151502179055508173ffffffffffffffffffffffffffffffffffffffff168373ffffffffffffffffffffffffffffffffffffffff167f17307eab39ab6107e8899845ad3d59bd9653f200f220920489ca2b5937696c3183604051611b4f919061241a565b60405180910390a3505050565b600073ffffffffffffffffffffffffffffffffffffffff168473ffffffffffffffffffffffffffffffffffffffff1603611bcb576040517f08c379a0000000000000000000000000000000000000000000000000000000008152600401611bc2906138b0565b60405180910390fd5b6000611bd5611304565b90506000611be285611ff4565b90506000611bef85611ff4565b9050611bff838989858589611e0d565b600080600088815260200190815260200160002060008a73ffffffffffffffffffffffffffffffffffffffff1673ffffffffffffffffffffffffffffffffffffffff16815260200190815260200160002054905085811015611c96576040517f08c379a0000000000000000000000000000000000000000000000000000000008152600401611c8d90613942565b60405180910390fd5b85810360008089815260200190815260200160002060008b73ffffffffffffffffffffffffffffffffffffffff1673ffffffffffffffffffffffffffffffffffffffff168152602001908152602001600020819055508560008089815260200190815260200160002060008a73ffffffffffffffffffffffffffffffffffffffff1673ffffffffffffffffffffffffffffffffffffffff1681526020019081526020016000206000828254611d4b91906131d0565b925050819055508773ffffffffffffffffffffffffffffffffffffffff168973ffffffffffffffffffffffffffffffffffffffff168573ffffffffffffffffffffffffffffffffffffffff167fc3d58168c5ae7397731d063d5bbf3d657854427343f4c083240f7aacaa2d0f628a8a604051611dc8929190613619565b60405180910390a4611dde848a8a86868a611e15565b611dec848a8a8a8a8a61206e565b505050505050505050565b6001816000016000828254019250508190555050565b505050505050565b505050505050565b611e3c8473ffffffffffffffffffffffffffffffffffffffff16612245565b15611fec578373ffffffffffffffffffffffffffffffffffffffff1663bc197c8187878686866040518663ffffffff1660e01b8152600401611e82959493929190613cc2565b6020604051808303816000875af1925050508015611ebe57506040513d601f19601f82011682018060405250810190611ebb9190613d3f565b60015b611f6357611eca613d79565b806308c379a003611f265750611ede613d9b565b80611ee95750611f28565b806040517f08c379a0000000000000000000000000000000000000000000000000000000008152600401611f1d91906126ea565b60405180910390fd5b505b6040517f08c379a0000000000000000000000000000000000000000000000000000000008152600401611f5a90613e9d565b60405180910390fd5b63bc197c8160e01b7bffffffffffffffffffffffffffffffffffffffffffffffffffffffff1916817bffffffffffffffffffffffffffffffffffffffffffffffffffffffff191614611fea576040517f08c379a0000000000000000000000000000000000000000000000000000000008152600401611fe190613f2f565b60405180910390fd5b505b505050505050565b60606000600167ffffffffffffffff81111561201357612012612450565b5b6040519080825280602002602001820160405280156120415781602001602082028036833780820191505090505b5090508281600081518110612059576120586130be565b5b60200260200101818152505080915050919050565b61208d8473ffffffffffffffffffffffffffffffffffffffff16612245565b1561223d578373ffffffffffffffffffffffffffffffffffffffff1663f23a6e6187878686866040518663ffffffff1660e01b81526004016120d3959493929190613f4f565b6020604051808303816000875af192505050801561210f57506040513d601f19601f8201168201806040525081019061210c9190613d3f565b60015b6121b45761211b613d79565b806308c379a003612177575061212f613d9b565b8061213a5750612179565b806040517f08c379a000000000000000000000000000000000000000000000000000000000815260040161216e91906126ea565b60405180910390fd5b505b6040517f08c379a00000000000000000000000000000000000000000000000000000000081526004016121ab90613e9d565b60405180910390fd5b63f23a6e6160e01b7bffffffffffffffffffffffffffffffffffffffffffffffffffffffff1916817bffffffffffffffffffffffffffffffffffffffffffffffffffffffff19161461223b576040517f08c379a000000000000000000000000000000000000000000000000000000000815260040161223290613f2f565b60405180910390fd5b505b505050505050565b6000808273ffffffffffffffffffffffffffffffffffffffff163b119050919050565b6000819050919050565b61227b81612268565b82525050565b60006020820190506122966000830184612272565b92915050565b6000604051905090565b600080fd5b600080fd5b600073ffffffffffffffffffffffffffffffffffffffff82169050919050565b60006122db826122b0565b9050919050565b6122eb816122d0565b81146122f657600080fd5b50565b600081359050612308816122e2565b92915050565b61231781612268565b811461232257600080fd5b50565b6000813590506123348161230e565b92915050565b60008060408385031215612351576123506122a6565b5b600061235f858286016122f9565b925050602061237085828601612325565b9150509250929050565b60007fffffffff0000000000000000000000000000000000000000000000000000000082169050919050565b6123af8161237a565b81146123ba57600080fd5b50565b6000813590506123cc816123a6565b92915050565b6000602082840312156123e8576123e76122a6565b5b60006123f6848285016123bd565b91505092915050565b60008115159050919050565b612414816123ff565b82525050565b600060208201905061242f600083018461240b565b92915050565b600080fd5b600080fd5b6000601f19601f8301169050919050565b7f4e487b7100000000000000000000000000000000000000000000000000000000600052604160045260246000fd5b6124888261243f565b810181811067ffffffffffffffff821117156124a7576124a6612450565b5b80604052505050565b60006124ba61229c565b90506124c6828261247f565b919050565b600067ffffffffffffffff8211156124e6576124e5612450565b5b6124ef8261243f565b9050602081019050919050565b82818337600083830152505050565b600061251e612519846124cb565b6124b0565b90508281526020810184848401111561253a5761253961243a565b5b6125458482856124fc565b509392505050565b600082601f83011261256257612561612435565b5b813561257284826020860161250b565b91505092915050565b612584816123ff565b811461258f57600080fd5b50565b6000813590506125a18161257b565b92915050565b600080600080600060a086880312156125c3576125c26122a6565b5b600086013567ffffffffffffffff8111156125e1576125e06122ab565b5b6125ed8882890161254d565b95505060206125fe88828901612325565b945050604061260f88828901612325565b935050606061262088828901612325565b925050608061263188828901612592565b9150509295509295909350565b600060208284031215612654576126536122a6565b5b600061266284828501612325565b91505092915050565b600081519050919050565b600082825260208201905092915050565b60005b838110156126a557808201518184015260208101905061268a565b60008484015250505050565b60006126bc8261266b565b6126c68185612676565b93506126d6818560208601612687565b6126df8161243f565b840191505092915050565b6000602082019050818103600083015261270481846126b1565b905092915050565b600067ffffffffffffffff82111561272757612726612450565b5b602082029050602081019050919050565b600080fd5b600061275061274b8461270c565b6124b0565b9050808382526020820190506020840283018581111561277357612772612738565b5b835b8181101561279c57806127888882612325565b845260208401935050602081019050612775565b5050509392505050565b600082601f8301126127bb576127ba612435565b5b81356127cb84826020860161273d565b91505092915050565b600067ffffffffffffffff8211156127ef576127ee612450565b5b6127f88261243f565b9050602081019050919050565b6000612818612813846127d4565b6124b0565b9050828152602081018484840111156128345761283361243a565b5b61283f8482856124fc565b509392505050565b600082601f83011261285c5761285b612435565b5b813561286c848260208601612805565b91505092915050565b600080600080600060a08688031215612891576128906122a6565b5b600061289f888289016122f9565b95505060206128b0888289016122f9565b945050604086013567ffffffffffffffff8111156128d1576128d06122ab565b5b6128dd888289016127a6565b935050606086013567ffffffffffffffff8111156128fe576128fd6122ab565b5b61290a888289016127a6565b925050608086013567ffffffffffffffff81111561292b5761292a6122ab565b5b61293788828901612847565b9150509295509295909350565b600067ffffffffffffffff82111561295f5761295e612450565b5b602082029050602081019050919050565b600061298361297e84612944565b6124b0565b905080838252602082019050602084028301858111156129a6576129a5612738565b5b835b818110156129cf57806129bb88826122f9565b8452602084019350506020810190506129a8565b5050509392505050565b600082601f8301126129ee576129ed612435565b5b81356129fe848260208601612970565b91505092915050565b60008060408385031215612a1e57612a1d6122a6565b5b600083013567ffffffffffffffff811115612a3c57612a3b6122ab565b5b612a48858286016129d9565b925050602083013567ffffffffffffffff811115612a6957612a686122ab565b5b612a75858286016127a6565b9150509250929050565b600081519050919050565b600082825260208201905092915050565b6000819050602082019050919050565b612ab481612268565b82525050565b6000612ac68383612aab565b60208301905092915050565b6000602082019050919050565b6000612aea82612a7f565b612af48185612a8a565b9350612aff83612a9b565b8060005b83811015612b30578151612b178882612aba565b9750612b2283612ad2565b925050600181019050612b03565b5085935050505092915050565b60006020820190508181036000830152612b578184612adf565b905092915050565b600060208284031215612b7557612b746122a6565b5b600082013567ffffffffffffffff811115612b9357612b926122ab565b5b612b9f8482850161254d565b91505092915050565b60008060408385031215612bbf57612bbe6122a6565b5b6000612bcd85828601612325565b9250506020612bde85828601612325565b9150509250929050565b612bf1816122d0565b82525050565b6000602082019050612c0c6000830184612be8565b92915050565b60008060408385031215612c2957612c286122a6565b5b6000612c37858286016122f9565b9250506020612c4885828601612592565b9150509250929050565b60008060408385031215612c6957612c686122a6565b5b6000612c77858286016122f9565b9250506020612c88858286016122f9565b9150509250929050565b600080600080600060a08688031215612cae57612cad6122a6565b5b6000612cbc888289016122f9565b9550506020612ccd888289016122f9565b9450506040612cde88828901612325565b9350506060612cef88828901612325565b925050608086013567ffffffffffffffff811115612d1057612d0f6122ab565b5b612d1c88828901612847565b9150509295509295909350565b600060208284031215612d3f57612d3e6122a6565b5b6000612d4d848285016122f9565b91505092915050565b7f455243313135353a2061646472657373207a65726f206973206e6f742061207660008201527f616c6964206f776e657200000000000000000000000000000000000000000000602082015250565b6000612db2602a83612676565b9150612dbd82612d56565b604082019050919050565b60006020820190508181036000830152612de181612da5565b9050919050565b600060a082019050612dfd6000830188612272565b8181036020830152612e0f81876126b1565b9050612e1e6040830186612272565b612e2b6060830185612272565b612e386080830184612272565b9695505050505050565b7f4e487b7100000000000000000000000000000000000000000000000000000000600052602260045260246000fd5b60006002820490506001821680612e8957607f821691505b602082108103612e9c57612e9b612e42565b5b50919050565b600081905092915050565b60008190508160005260206000209050919050565b60008154612ecf81612e71565b612ed98186612ea2565b94506001821660008114612ef45760018114612f0957612f3c565b60ff1983168652811515820286019350612f3c565b612f1285612ead565b60005b83811015612f3457815481890152600182019150602081019050612f15565b838801955050505b50505092915050565b6000612f508261266b565b612f5a8185612ea2565b9350612f6a818560208601612687565b80840191505092915050565b6000612f828285612ec2565b9150612f8e8284612f45565b91508190509392505050565b7f455243313135353a2063616c6c6572206973206e6f7420746f6b656e206f776e60008201527f6572206f7220617070726f766564000000000000000000000000000000000000602082015250565b6000612ff6602e83612676565b915061300182612f9a565b604082019050919050565b6000602082019050818103600083015261302581612fe9565b9050919050565b7f455243313135353a206163636f756e747320616e6420696473206c656e67746860008201527f206d69736d617463680000000000000000000000000000000000000000000000602082015250565b6000613088602983612676565b91506130938261302c565b604082019050919050565b600060208201905081810360008301526130b78161307b565b9050919050565b7f4e487b7100000000000000000000000000000000000000000000000000000000600052603260045260246000fd5b7f4e487b7100000000000000000000000000000000000000000000000000000000600052601160045260246000fd5b600061312782612268565b91507fffffffffffffffffffffffffffffffffffffffffffffffffffffffffffffffff8203613159576131586130ed565b5b600182019050919050565b7f416c7265616479206d696e7465642061206d656d626572736869700000000000600082015250565b600061319a601b83612676565b91506131a582613164565b602082019050919050565b600060208201905081810360008301526131c98161318d565b9050919050565b60006131db82612268565b91506131e683612268565b92508282019050808211156131fe576131fd6130ed565b5b92915050565b7f457863656564696e67206d617820737570706c79000000000000000000000000600082015250565b600061323a601483612676565b915061324582613204565b602082019050919050565b600060208201905081810360008301526132698161322d565b9050919050565b7f496e636f727265637420616d6f756e742073656e740000000000000000000000600082015250565b60006132a6601583612676565b91506132b182613270565b602082019050919050565b600060208201905081810360008301526132d581613299565b9050919050565b60006020601f8301049050919050565b600082821b905092915050565b6000600883026133297fffffffffffffffffffffffffffffffffffffffffffffffffffffffffffffffff826132ec565b61333386836132ec565b95508019841693508086168417925050509392505050565b6000819050919050565b600061337061336b61336684612268565b61334b565b612268565b9050919050565b6000819050919050565b61338a83613355565b61339e61339682613377565b8484546132f9565b825550505050565b600090565b6133b36133a6565b6133be818484613381565b505050565b5b818110156133e2576133d76000826133ab565b6001810190506133c4565b5050565b601f821115613427576133f881612ead565b613401846132dc565b81016020851015613410578190505b61342461341c856132dc565b8301826133c3565b50505b505050565b600082821c905092915050565b600061344a6000198460080261342c565b1980831691505092915050565b60006134638383613439565b9150826002028217905092915050565b61347c8261266b565b67ffffffffffffffff81111561349557613494612450565b5b61349f8254612e71565b6134aa8282856133e6565b600060209050601f8311600181146134dd57600084156134cb578287015190505b6134d58582613457565b86555061353d565b601f1984166134eb86612ead565b60005b82811015613513578489015182556001820191506020850194506020810190506134ee565b86831015613530578489015161352c601f891682613439565b8355505b6001600288020188555050505b505050505050565b7f4d7573742062652061206d656d62657220746f206d696e74207468697320656460008201527f6974696f6e000000000000000000000000000000000000000000000000000000602082015250565b60006135a1602583612676565b91506135ac82613545565b604082019050919050565b600060208201905081810360008301526135d081613594565b9050919050565b60006135e282612268565b91506135ed83612268565b92508282026135fb81612268565b91508282048414831517613612576136116130ed565b5b5092915050565b600060408201905061362e6000830185612272565b61363b6020830184612272565b9392505050565b7f4f776e61626c653a206e6577206f776e657220697320746865207a65726f206160008201527f6464726573730000000000000000000000000000000000000000000000000000602082015250565b600061369e602683612676565b91506136a982613642565b604082019050919050565b600060208201905081810360008301526136cd81613691565b9050919050565b7f4f776e61626c653a2063616c6c6572206973206e6f7420746865206f776e6572600082015250565b600061370a602083612676565b9150613715826136d4565b602082019050919050565b60006020820190508181036000830152613739816136fd565b9050919050565b7f526f79616c74792063616e6e6f74206265206d6f7265207468616e2031303025600082015250565b6000613776602083612676565b915061378182613740565b602082019050919050565b600060208201905081810360008301526137a581613769565b9050919050565b7f455243313135353a2069647320616e6420616d6f756e7473206c656e6774682060008201527f6d69736d61746368000000000000000000000000000000000000000000000000602082015250565b6000613808602883612676565b9150613813826137ac565b604082019050919050565b60006020820190508181036000830152613837816137fb565b9050919050565b7f455243313135353a207472616e7366657220746f20746865207a65726f20616460008201527f6472657373000000000000000000000000000000000000000000000000000000602082015250565b600061389a602583612676565b91506138a58261383e565b604082019050919050565b600060208201905081810360008301526138c98161388d565b9050919050565b7f455243313135353a20696e73756666696369656e742062616c616e636520666f60008201527f72207472616e7366657200000000000000000000000000000000000000000000602082015250565b600061392c602a83612676565b9150613937826138d0565b604082019050919050565b6000602082019050818103600083015261395b8161391f565b9050919050565b6000604082019050818103600083015261397c8185612adf565b905081810360208301526139908184612adf565b90509392505050565b7f5265656e7472616e637947756172643a207265656e7472616e742063616c6c00600082015250565b60006139cf601f83612676565b91506139da82613999565b602082019050919050565b600060208201905081810360008301526139fe816139c2565b9050919050565b7f455243313135353a206d696e7420746f20746865207a65726f2061646472657360008201527f7300000000000000000000000000000000000000000000000000000000000000602082015250565b6000613a61602183612676565b9150613a6c82613a05565b604082019050919050565b60006020820190508181036000830152613a9081613a54565b9050919050565b7f416464726573733a20696e73756666696369656e742062616c616e6365000000600082015250565b6000613acd601d83612676565b9150613ad882613a97565b602082019050919050565b60006020820190508181036000830152613afc81613ac0565b9050919050565b600081905092915050565b50565b6000613b1e600083613b03565b9150613b2982613b0e565b600082019050919050565b6000613b3f82613b11565b9150819050919050565b7f416464726573733a20756e61626c6520746f2073656e642076616c75652c207260008201527f6563697069656e74206d61792068617665207265766572746564000000000000602082015250565b6000613ba5603a83612676565b9150613bb082613b49565b604082019050919050565b60006020820190508181036000830152613bd481613b98565b9050919050565b7f455243313135353a2073657474696e6720617070726f76616c2073746174757360008201527f20666f722073656c660000000000000000000000000000000000000000000000602082015250565b6000613c37602983612676565b9150613c4282613bdb565b604082019050919050565b60006020820190508181036000830152613c6681613c2a565b9050919050565b600081519050919050565b600082825260208201905092915050565b6000613c9482613c6d565b613c9e8185613c78565b9350613cae818560208601612687565b613cb78161243f565b840191505092915050565b600060a082019050613cd76000830188612be8565b613ce46020830187612be8565b8181036040830152613cf68186612adf565b90508181036060830152613d0a8185612adf565b90508181036080830152613d1e8184613c89565b90509695505050505050565b600081519050613d39816123a6565b92915050565b600060208284031215613d5557613d546122a6565b5b6000613d6384828501613d2a565b91505092915050565b60008160e01c9050919050565b600060033d1115613d985760046000803e613d95600051613d6c565b90505b90565b600060443d10613e2857613dad61229c565b60043d036004823e80513d602482011167ffffffffffffffff82111715613dd5575050613e28565b808201805167ffffffffffffffff811115613df35750505050613e28565b80602083010160043d038501811115613e10575050505050613e28565b613e1f8260200185018661247f565b82955050505050505b90565b7f455243313135353a207472616e7366657220746f206e6f6e2d4552433131353560008201527f526563656976657220696d706c656d656e746572000000000000000000000000602082015250565b6000613e87603483612676565b9150613e9282613e2b565b604082019050919050565b60006020820190508181036000830152613eb681613e7a565b9050919050565b7f455243313135353a204552433131353552656365697665722072656a6563746560008201527f6420746f6b656e73000000000000000000000000000000000000000000000000602082015250565b6000613f19602883612676565b9150613f2482613ebd565b604082019050919050565b60006020820190508181036000830152613f4881613f0c565b9050919050565b600060a082019050613f646000830188612be8565b613f716020830187612be8565b613f7e6040830186612272565b613f8b6060830185612272565b8181036080830152613f9d8184613c89565b9050969550505050505056fea2646970667358221220163a9cdaa9d97f67c6b98d12000d4b87655747b8168b8ca344a63b3b92f7906a64736f6c63430008120033",
  "linkReferences": {},
  "deployedLinkReferences": {}
}