{
  "_format": "hh-sol-artifact-1",
  "contractName": "PlayzProfile",
  "sourceName": "contracts/PlayzProfile.sol",
  "abi": [
    {
      "inputs": [
        {
          "internalType": "string",
          "name": "_profileURI",
          "type": "string"
        }
      ],
      "stateMutability": "nonpayable",
      "type": "constructor"
    },
    {
      "anonymous": false,
      "inputs": [
        {
          "indexed": true,
          "internalType": "address",
          "name": "account",
          "type": "address"
        },
        {
          "indexed": true,
          "internalType": "address",
          "name": "operator",
          "type": "address"
        },
        {
          "indexed": false,
          "internalType": "bool",
          "name": "approved",
          "type": "bool"
        }
      ],
      "name": "ApprovalForAll",
      "type": "event"
    },
    {
      "anonymous": false,
      "inputs": [
        {
          "indexed": false,
          "internalType": "uint256",
          "name": "tokenId",
          "type": "uint256"
        },
        {
          "indexed": false,
          "internalType": "string",
          "name": "tokenURI",
          "type": "string"
        },
        {
          "indexed": false,
          "internalType": "uint256",
          "name": "tokenSupply",
          "type": "uint256"
        },
        {
          "indexed": false,
          "internalType": "uint256",
          "name": "tokenPrice",
          "type": "uint256"
        },
        {
          "indexed": false,
          "internalType": "uint256",
          "name": "royaltyPercentage",
          "type": "uint256"
        }
      ],
      "name": "EditionCreated",
      "type": "event"
    },
    {
      "anonymous": false,
      "inputs": [
        {
          "indexed": true,
          "internalType": "address",
          "name": "to",
          "type": "address"
        },
        {
          "indexed": false,
          "internalType": "uint256",
          "name": "tokenId",
          "type": "uint256"
        },
        {
          "indexed": false,
          "internalType": "uint256",
          "name": "amount",
          "type": "uint256"
        }
      ],
      "name": "EditionMinted",
      "type": "event"
    },
    {
      "anonymous": false,
      "inputs": [
        {
          "indexed": false,
          "internalType": "uint256",
          "name": "tokenId",
          "type": "uint256"
        }
      ],
      "name": "MemberEditionSet",
      "type": "event"
    },
    {
      "anonymous": false,
      "inputs": [
        {
          "indexed": false,
          "internalType": "string",
          "name": "tokenURI",
          "type": "string"
        },
        {
          "indexed": false,
          "internalType": "uint256",
          "name": "tokenSupply",
          "type": "uint256"
        },
        {
          "indexed": false,
          "internalType": "uint256",
          "name": "tokenPrice",
          "type": "uint256"
        },
        {
          "indexed": false,
          "internalType": "uint256",
          "name": "royaltyPercentage",
          "type": "uint256"
        }
      ],
      "name": "MembershipCreated",
      "type": "event"
    },
    {
      "anonymous": false,
      "inputs": [
        {
          "indexed": true,
          "internalType": "address",
          "name": "to",
          "type": "address"
        }
      ],
      "name": "MembershipMinted",
      "type": "event"
    },
    {
      "anonymous": false,
      "inputs": [
        {
          "indexed": true,
          "internalType": "address",
          "name": "previousOwner",
          "type": "address"
        },
        {
          "indexed": true,
          "internalType": "address",
          "name": "newOwner",
          "type": "address"
        }
      ],
      "name": "OwnershipTransferred",
      "type": "event"
    },
    {
      "anonymous": false,
      "inputs": [
        {
          "indexed": false,
          "internalType": "string",
          "name": "newProfileURI",
          "type": "string"
        }
      ],
      "name": "ProfileURISet",
      "type": "event"
    },
    {
      "anonymous": false,
      "inputs": [
        {
          "indexed": true,
          "internalType": "address",
          "name": "operator",
          "type": "address"
        },
        {
          "indexed": true,
          "internalType": "address",
          "name": "from",
          "type": "address"
        },
        {
          "indexed": true,
          "internalType": "address",
          "name": "to",
          "type": "address"
        },
        {
          "indexed": false,
          "internalType": "uint256[]",
          "name": "ids",
          "type": "uint256[]"
        },
        {
          "indexed": false,
          "internalType": "uint256[]",
          "name": "values",
          "type": "uint256[]"
        }
      ],
      "name": "TransferBatch",
      "type": "event"
    },
    {
      "anonymous": false,
      "inputs": [
        {
          "indexed": true,
          "internalType": "address",
          "name": "operator",
          "type": "address"
        },
        {
          "indexed": true,
          "internalType": "address",
          "name": "from",
          "type": "address"
        },
        {
          "indexed": true,
          "internalType": "address",
          "name": "to",
          "type": "address"
        },
        {
          "indexed": false,
          "internalType": "uint256",
          "name": "id",
          "type": "uint256"
        },
        {
          "indexed": false,
          "internalType": "uint256",
          "name": "value",
          "type": "uint256"
        }
      ],
      "name": "TransferSingle",
      "type": "event"
    },
    {
      "anonymous": false,
      "inputs": [
        {
          "indexed": false,
          "internalType": "string",
          "name": "value",
          "type": "string"
        },
        {
          "indexed": true,
          "internalType": "uint256",
          "name": "id",
          "type": "uint256"
        }
      ],
      "name": "URI",
      "type": "event"
    },
    {
      "inputs": [
        {
          "internalType": "address",
          "name": "account",
          "type": "address"
        },
        {
          "internalType": "uint256",
          "name": "id",
          "type": "uint256"
        }
      ],
      "name": "balanceOf",
      "outputs": [
        {
          "internalType": "uint256",
          "name": "",
          "type": "uint256"
        }
      ],
      "stateMutability": "view",
      "type": "function"
    },
    {
      "inputs": [
        {
          "internalType": "address[]",
          "name": "accounts",
          "type": "address[]"
        },
        {
          "internalType": "uint256[]",
          "name": "ids",
          "type": "uint256[]"
        }
      ],
      "name": "balanceOfBatch",
      "outputs": [
        {
          "internalType": "uint256[]",
          "name": "",
          "type": "uint256[]"
        }
      ],
      "stateMutability": "view",
      "type": "function"
    },
    {
      "inputs": [
        {
          "internalType": "string",
          "name": "_tokenURI",
          "type": "string"
        },
        {
          "internalType": "uint256",
          "name": "_tokenSupply",
          "type": "uint256"
        },
        {
          "internalType": "uint256",
          "name": "_tokenPrice",
          "type": "uint256"
        },
        {
          "internalType": "uint256",
          "name": "_royaltyPercentage",
          "type": "uint256"
        }
      ],
      "name": "createEdition",
      "outputs": [],
      "stateMutability": "nonpayable",
      "type": "function"
    },
    {
      "inputs": [
        {
          "internalType": "address",
          "name": "account",
          "type": "address"
        },
        {
          "internalType": "address",
          "name": "operator",
          "type": "address"
        }
      ],
      "name": "isApprovedForAll",
      "outputs": [
        {
          "internalType": "bool",
          "name": "",
          "type": "bool"
        }
      ],
      "stateMutability": "view",
      "type": "function"
    },
    {
      "inputs": [
        {
          "internalType": "uint256",
          "name": "_tokenId",
          "type": "uint256"
        },
        {
          "internalType": "uint256",
          "name": "amount",
          "type": "uint256"
        }
      ],
      "name": "mintEdition",
      "outputs": [],
      "stateMutability": "payable",
      "type": "function"
    },
    {
      "inputs": [],
      "name": "mintMembership",
      "outputs": [],
      "stateMutability": "payable",
      "type": "function"
    },
    {
      "inputs": [],
      "name": "owner",
      "outputs": [
        {
          "internalType": "address",
          "name": "",
          "type": "address"
        }
      ],
      "stateMutability": "view",
      "type": "function"
    },
    {
      "inputs": [],
      "name": "profileURI",
      "outputs": [
        {
          "internalType": "string",
          "name": "",
          "type": "string"
        }
      ],
      "stateMutability": "view",
      "type": "function"
    },
    {
      "inputs": [],
      "name": "renounceOwnership",
      "outputs": [],
      "stateMutability": "nonpayable",
      "type": "function"
    },
    {
      "inputs": [
        {
          "internalType": "address",
          "name": "from",
          "type": "address"
        },
        {
          "internalType": "address",
          "name": "to",
          "type": "address"
        },
        {
          "internalType": "uint256[]",
          "name": "ids",
          "type": "uint256[]"
        },
        {
          "internalType": "uint256[]",
          "name": "amounts",
          "type": "uint256[]"
        },
        {
          "internalType": "bytes",
          "name": "data",
          "type": "bytes"
        }
      ],
      "name": "safeBatchTransferFrom",
      "outputs": [],
      "stateMutability": "nonpayable",
      "type": "function"
    },
    {
      "inputs": [
        {
          "internalType": "address",
          "name": "from",
          "type": "address"
        },
        {
          "internalType": "address",
          "name": "to",
          "type": "address"
        },
        {
          "internalType": "uint256",
          "name": "id",
          "type": "uint256"
        },
        {
          "internalType": "uint256",
          "name": "amount",
          "type": "uint256"
        },
        {
          "internalType": "bytes",
          "name": "data",
          "type": "bytes"
        }
      ],
      "name": "safeTransferFrom",
      "outputs": [],
      "stateMutability": "nonpayable",
      "type": "function"
    },
    {
      "inputs": [
        {
          "internalType": "address",
          "name": "operator",
          "type": "address"
        },
        {
          "internalType": "bool",
          "name": "approved",
          "type": "bool"
        }
      ],
      "name": "setApprovalForAll",
      "outputs": [],
      "stateMutability": "nonpayable",
      "type": "function"
    },
    {
      "inputs": [
        {
          "internalType": "uint256",
          "name": "_tokenId",
          "type": "uint256"
        }
      ],
      "name": "setMemberEdition",
      "outputs": [],
      "stateMutability": "nonpayable",
      "type": "function"
    },
    {
      "inputs": [
        {
          "internalType": "string",
          "name": "_profileURI",
          "type": "string"
        }
      ],
      "name": "setProfileURI",
      "outputs": [],
      "stateMutability": "nonpayable",
      "type": "function"
    },
    {
      "inputs": [
        {
          "internalType": "bytes4",
          "name": "interfaceId",
          "type": "bytes4"
        }
      ],
      "name": "supportsInterface",
      "outputs": [
        {
          "internalType": "bool",
          "name": "",
          "type": "bool"
        }
      ],
      "stateMutability": "view",
      "type": "function"
    },
    {
      "inputs": [
        {
          "internalType": "address",
          "name": "newOwner",
          "type": "address"
        }
      ],
      "name": "transferOwnership",
      "outputs": [],
      "stateMutability": "nonpayable",
      "type": "function"
    },
    {
      "inputs": [
        {
          "internalType": "string",
          "name": "_tokenURI",
          "type": "string"
        },
        {
          "internalType": "uint256",
          "name": "_tokenSupply",
          "type": "uint256"
        },
        {
          "internalType": "uint256",
          "name": "_tokenPrice",
          "type": "uint256"
        },
        {
          "internalType": "uint256",
          "name": "_royaltyPercentage",
          "type": "uint256"
        }
      ],
      "name": "updateMembership",
      "outputs": [],
      "stateMutability": "nonpayable",
      "type": "function"
    },
    {
      "inputs": [
        {
          "internalType": "uint256",
          "name": "tokenId",
          "type": "uint256"
        }
      ],
      "name": "uri",
      "outputs": [
        {
          "internalType": "string",
          "name": "",
          "type": "string"
        }
      ],
      "stateMutability": "view",
      "type": "function"
    },
    {
      "stateMutability": "payable",
      "type": "receive"
    }
  ],
  "bytecode": "0x6080604052604051806020016040528060008152506003908162000024919062000521565b503480156200003257600080fd5b50604051620049543803806200495483398181016040528101906200005891906200076c565b806200006a81620000ab60201b60201c565b506200008b6200007f620000c060201b60201c565b620000c860201b60201c565b6001600681905550620000a4816200018e60201b60201c565b50620008a5565b8060029081620000bc919062000521565b5050565b600033905090565b6000600560009054906101000a900473ffffffffffffffffffffffffffffffffffffffff16905081600560006101000a81548173ffffffffffffffffffffffffffffffffffffffff021916908373ffffffffffffffffffffffffffffffffffffffff1602179055508173ffffffffffffffffffffffffffffffffffffffff168173ffffffffffffffffffffffffffffffffffffffff167f8be0079c531659141344cd1fd0a4f28419497f9722a3daafe3b4186f6b6457e060405160405180910390a35050565b6200019e620001ec60201b60201c565b8060079081620001af919062000521565b507f80947a58c5521058903cdae1467afcdb21b9ecf26ce2d41821232b2ee0ba907c81604051620001e191906200080f565b60405180910390a150565b620001fc620000c060201b60201c565b73ffffffffffffffffffffffffffffffffffffffff16620002226200027d60201b60201c565b73ffffffffffffffffffffffffffffffffffffffff16146200027b576040517f08c379a0000000000000000000000000000000000000000000000000000000008152600401620002729062000883565b60405180910390fd5b565b6000600560009054906101000a900473ffffffffffffffffffffffffffffffffffffffff16905090565b600081519050919050565b7f4e487b7100000000000000000000000000000000000000000000000000000000600052604160045260246000fd5b7f4e487b7100000000000000000000000000000000000000000000000000000000600052602260045260246000fd5b600060028204905060018216806200032957607f821691505b6020821081036200033f576200033e620002e1565b5b50919050565b60008190508160005260206000209050919050565b60006020601f8301049050919050565b600082821b905092915050565b600060088302620003a97fffffffffffffffffffffffffffffffffffffffffffffffffffffffffffffffff826200036a565b620003b586836200036a565b95508019841693508086168417925050509392505050565b6000819050919050565b6000819050919050565b600062000402620003fc620003f684620003cd565b620003d7565b620003cd565b9050919050565b6000819050919050565b6200041e83620003e1565b620004366200042d8262000409565b84845462000377565b825550505050565b600090565b6200044d6200043e565b6200045a81848462000413565b505050565b5b8181101562000482576200047660008262000443565b60018101905062000460565b5050565b601f821115620004d1576200049b8162000345565b620004a6846200035a565b81016020851015620004b6578190505b620004ce620004c5856200035a565b8301826200045f565b50505b505050565b600082821c905092915050565b6000620004f660001984600802620004d6565b1980831691505092915050565b6000620005118383620004e3565b9150826002028217905092915050565b6200052c82620002a7565b67ffffffffffffffff811115620005485762000547620002b2565b5b62000554825462000310565b6200056182828562000486565b600060209050601f83116001811462000599576000841562000584578287015190505b62000590858262000503565b86555062000600565b601f198416620005a98662000345565b60005b82811015620005d357848901518255600182019150602085019450602081019050620005ac565b86831015620005f35784890151620005ef601f891682620004e3565b8355505b6001600288020188555050505b505050505050565b6000604051905090565b600080fd5b600080fd5b600080fd5b600080fd5b6000601f19601f8301169050919050565b620006428262000626565b810181811067ffffffffffffffff82111715620006645762000663620002b2565b5b80604052505050565b60006200067962000608565b905062000687828262000637565b919050565b600067ffffffffffffffff821115620006aa57620006a9620002b2565b5b620006b58262000626565b9050602081019050919050565b60005b83811015620006e2578082015181840152602081019050620006c5565b60008484015250505050565b600062000705620006ff846200068c565b6200066d565b90508281526020810184848401111562000724576200072362000621565b5b62000731848285620006c2565b509392505050565b600082601f8301126200075157620007506200061c565b5b815162000763848260208601620006ee565b91505092915050565b60006020828403121562000785576200078462000612565b5b600082015167ffffffffffffffff811115620007a657620007a562000617565b5b620007b48482850162000739565b91505092915050565b600082825260208201905092915050565b6000620007db82620002a7565b620007e78185620007bd565b9350620007f9818560208601620006c2565b620008048162000626565b840191505092915050565b600060208201905081810360008301526200082b8184620007ce565b905092915050565b7f4f776e61626c653a2063616c6c6572206973206e6f7420746865206f776e6572600082015250565b60006200086b602083620007bd565b9150620008788262000833565b602082019050919050565b600060208201905081810360008301526200089e816200085c565b9050919050565b61409f80620008b56000396000f3fe60806040526004361061010c5760003560e01c80637c2f39f711610095578063adfdeb6111610064578063adfdeb6114610343578063cfb3e1231461036c578063e985e9c514610395578063f242432a146103d2578063f2fde38b146103fb57610113565b80637c2f39f7146102a85780638da5cb5b146102c4578063963310af146102ef578063a22cb4651461031a57610113565b80633bdfb434116100dc5780633bdfb434146101f85780634e1273f414610221578063712319081461025e578063715018a614610268578063786d6b971461027f57610113565b8062fdd58e1461011857806301ffc9a7146101555780630e89341c146101925780632eb2c2d6146101cf57610113565b3661011357005b600080fd5b34801561012457600080fd5b5061013f600480360381019061013a9190612398565b610424565b60405161014c91906123e7565b60405180910390f35b34801561016157600080fd5b5061017c6004803603810190610177919061245a565b6104ec565b60405161018991906124a2565b60405180910390f35b34801561019e57600080fd5b506101b960048036038101906101b491906124bd565b6105ce565b6040516101c6919061257a565b60405180910390f35b3480156101db57600080fd5b506101f660048036038101906101f19190612799565b6106b3565b005b34801561020457600080fd5b5061021f600480360381019061021a9190612909565b610754565b005b34801561022d57600080fd5b5061024860048036038101906102439190612a4f565b6107cb565b6040516102559190612b85565b60405180910390f35b6102666108e4565b005b34801561027457600080fd5b5061027d610ace565b005b34801561028b57600080fd5b506102a660048036038101906102a19190612ba7565b610ae2565b005b6102c260048036038101906102bd9190612bf0565b610b34565b005b3480156102d057600080fd5b506102d9610d5b565b6040516102e69190612c3f565b60405180910390f35b3480156102fb57600080fd5b50610304610d85565b604051610311919061257a565b60405180910390f35b34801561032657600080fd5b50610341600480360381019061033c9190612c86565b610e13565b005b34801561034f57600080fd5b5061036a600480360381019061036591906124bd565b610e29565b005b34801561037857600080fd5b50610393600480360381019061038e9190612909565b610e97565b005b3480156103a157600080fd5b506103bc60048036038101906103b79190612cc6565b610f19565b6040516103c991906124a2565b60405180910390f35b3480156103de57600080fd5b506103f960048036038101906103f49190612d06565b610fad565b005b34801561040757600080fd5b50610422600480360381019061041d9190612d9d565b61104e565b005b60008073ffffffffffffffffffffffffffffffffffffffff168373ffffffffffffffffffffffffffffffffffffffff1603610494576040517f08c379a000000000000000000000000000000000000000000000000000000000815260040161048b90612e3c565b60405180910390fd5b60008083815260200190815260200160002060008473ffffffffffffffffffffffffffffffffffffffff1673ffffffffffffffffffffffffffffffffffffffff16815260200190815260200160002054905092915050565b60007fd9b67a26000000000000000000000000000000000000000000000000000000007bffffffffffffffffffffffffffffffffffffffffffffffffffffffff1916827bffffffffffffffffffffffffffffffffffffffffffffffffffffffff191614806105b757507f0e89341c000000000000000000000000000000000000000000000000000000007bffffffffffffffffffffffffffffffffffffffffffffffffffffffff1916827bffffffffffffffffffffffffffffffffffffffffffffffffffffffff1916145b806105c757506105c6826110d1565b5b9050919050565b606060006004600084815260200190815260200160002080546105f090612e8b565b80601f016020809104026020016040519081016040528092919081815260200182805461061c90612e8b565b80156106695780601f1061063e57610100808354040283529160200191610669565b820191906000526020600020905b81548152906001019060200180831161064c57829003601f168201915b505050505090506000815111610687576106828361113b565b6106ab565b60038160405160200161069b929190612f90565b6040516020818303038152906040525b915050919050565b6106bb6111cf565b73ffffffffffffffffffffffffffffffffffffffff168573ffffffffffffffffffffffffffffffffffffffff1614806107015750610700856106fb6111cf565b610f19565b5b610740576040517f08c379a000000000000000000000000000000000000000000000000000000000815260040161073790613026565b60405180910390fd5b61074d85858585856111d7565b5050505050565b61075c6114f8565b610767600085611576565b6107726000846115db565b61077d600083611610565b61078860008261162c565b7ffceb9af4b8e8238f4ed877a72ab857f1a26da08f75885bb1a45373ab87d195bc848484846040516107bd9493929190613046565b60405180910390a150505050565b60608151835114610811576040517f08c379a000000000000000000000000000000000000000000000000000000000815260040161080890613104565b60405180910390fd5b6000835167ffffffffffffffff81111561082e5761082d6125a1565b5b60405190808252806020026020018201604052801561085c5781602001602082028036833780820191505090505b50905060005b84518110156108d9576108a985828151811061088157610880613124565b5b602002602001015185838151811061089c5761089b613124565b5b6020026020010151610424565b8282815181106108bc576108bb613124565b5b602002602001018181525050806108d290613182565b9050610862565b508091505092915050565b6108ec61168c565b60006108f9336000610424565b14610939576040517f08c379a000000000000000000000000000000000000000000000000000000000815260040161093090613216565b60405180910390fd5b60096000808152602001908152602001600020546001600a60008081526020019081526020016000205461096d9190613236565b11156109ae576040517f08c379a00000000000000000000000000000000000000000000000000000000081526004016109a5906132b6565b60405180910390fd5b6000600b6000808152602001908152602001600020549050803414610a08576040517f08c379a00000000000000000000000000000000000000000000000000000000081526004016109ff90613322565b60405180910390fd5b6001600a60008081526020019081526020016000206000828254610a2c9190613236565b92505081905550610a503360006001604051806020016040528060008152506116db565b610a8034610a5c610d5b565b73ffffffffffffffffffffffffffffffffffffffff1661188b90919063ffffffff16565b3373ffffffffffffffffffffffffffffffffffffffff167fe9222f18c7bd5a0ccd9b42bd890bcc13bdf644a38c9460203deefa197f86e3d260405160405180910390a250610acc61197f565b565b610ad66114f8565b610ae06000611989565b565b610aea6114f8565b8060079081610af991906134d9565b507f80947a58c5521058903cdae1467afcdb21b9ecf26ce2d41821232b2ee0ba907c81604051610b29919061257a565b60405180910390a150565b610b3c61168c565b600d600083815260200190815260200160002060009054906101000a900460ff1615610bb0576000610b6f336000610424565b11610baf576040517f08c379a0000000000000000000000000000000000000000000000000000000008152600401610ba69061361d565b60405180910390fd5b5b600960008381526020019081526020016000205481600a600085815260200190815260200160002054610be39190613236565b1115610c24576040517f08c379a0000000000000000000000000000000000000000000000000000000008152600401610c1b906132b6565b60405180910390fd5b600081600b600085815260200190815260200160002054610c45919061363d565b9050803414610c89576040517f08c379a0000000000000000000000000000000000000000000000000000000008152600401610c8090613322565b60405180910390fd5b81600a60008581526020019081526020016000206000828254610cac9190613236565b92505081905550610cce338484604051806020016040528060008152506116db565b610cfe34610cda610d5b565b73ffffffffffffffffffffffffffffffffffffffff1661188b90919063ffffffff16565b3373ffffffffffffffffffffffffffffffffffffffff167fe1b60c9e07632933648666e5ede8b3b329ddfa2ab98c51b1a5b4b22ab4f1349c8484604051610d4692919061367f565b60405180910390a250610d5761197f565b5050565b6000600560009054906101000a900473ffffffffffffffffffffffffffffffffffffffff16905090565b60078054610d9290612e8b565b80601f0160208091040260200160405190810160405280929190818152602001828054610dbe90612e8b565b8015610e0b5780601f10610de057610100808354040283529160200191610e0b565b820191906000526020600020905b815481529060010190602001808311610dee57829003601f168201915b505050505081565b610e25610e1e6111cf565b8383611a4f565b5050565b610e316114f8565b6001600d600083815260200190815260200160002060006101000a81548160ff0219169083151502179055507fae101192cb3f18f09d06f98ca6d8b65a6cb3536f8a7fce5b5649a4655e3f79bb81604051610e8c91906123e7565b60405180910390a150565b610e9f6114f8565b6000610ea9611bbb565b9050610eb58186611576565b610ebf81856115db565b610ec98184611610565b610ed3818361162c565b7f91631f4f8f27505eef8978045d2f2a8c021d29f68d825e914a1bb4aa78421c9a8186868686604051610f0a9594939291906136a8565b60405180910390a15050505050565b6000600160008473ffffffffffffffffffffffffffffffffffffffff1673ffffffffffffffffffffffffffffffffffffffff16815260200190815260200160002060008373ffffffffffffffffffffffffffffffffffffffff1673ffffffffffffffffffffffffffffffffffffffff16815260200190815260200160002060009054906101000a900460ff16905092915050565b610fb56111cf565b73ffffffffffffffffffffffffffffffffffffffff168573ffffffffffffffffffffffffffffffffffffffff161480610ffb5750610ffa85610ff56111cf565b610f19565b5b61103a576040517f08c379a000000000000000000000000000000000000000000000000000000000815260040161103190613026565b60405180910390fd5b6110478585858585611bd6565b5050505050565b6110566114f8565b600073ffffffffffffffffffffffffffffffffffffffff168173ffffffffffffffffffffffffffffffffffffffff16036110c5576040517f08c379a00000000000000000000000000000000000000000000000000000000081526004016110bc90613774565b60405180910390fd5b6110ce81611989565b50565b60007f01ffc9a7000000000000000000000000000000000000000000000000000000007bffffffffffffffffffffffffffffffffffffffffffffffffffffffff1916827bffffffffffffffffffffffffffffffffffffffffffffffffffffffff1916149050919050565b60606002805461114a90612e8b565b80601f016020809104026020016040519081016040528092919081815260200182805461117690612e8b565b80156111c35780601f10611198576101008083540402835291602001916111c3565b820191906000526020600020905b8154815290600101906020018083116111a657829003601f168201915b50505050509050919050565b600033905090565b815183511461121b576040517f08c379a000000000000000000000000000000000000000000000000000000000815260040161121290613806565b60405180910390fd5b600073ffffffffffffffffffffffffffffffffffffffff168473ffffffffffffffffffffffffffffffffffffffff160361128a576040517f08c379a000000000000000000000000000000000000000000000000000000000815260040161128190613898565b60405180910390fd5b60006112946111cf565b90506112a4818787878787611e71565b60005b84518110156114555760008582815181106112c5576112c4613124565b5b6020026020010151905060008583815181106112e4576112e3613124565b5b60200260200101519050600080600084815260200190815260200160002060008b73ffffffffffffffffffffffffffffffffffffffff1673ffffffffffffffffffffffffffffffffffffffff16815260200190815260200160002054905081811015611385576040517f08c379a000000000000000000000000000000000000000000000000000000000815260040161137c9061392a565b60405180910390fd5b81810360008085815260200190815260200160002060008c73ffffffffffffffffffffffffffffffffffffffff1673ffffffffffffffffffffffffffffffffffffffff168152602001908152602001600020819055508160008085815260200190815260200160002060008b73ffffffffffffffffffffffffffffffffffffffff1673ffffffffffffffffffffffffffffffffffffffff168152602001908152602001600020600082825461143a9190613236565b925050819055505050508061144e90613182565b90506112a7565b508473ffffffffffffffffffffffffffffffffffffffff168673ffffffffffffffffffffffffffffffffffffffff168273ffffffffffffffffffffffffffffffffffffffff167f4a39dc06d4c0dbc64b70af90fd698a233a518aa5d07e595d983b8c0526c8f7fb87876040516114cc92919061394a565b60405180910390a46114e2818787878787611e79565b6114f0818787878787611e81565b505050505050565b6115006111cf565b73ffffffffffffffffffffffffffffffffffffffff1661151e610d5b565b73ffffffffffffffffffffffffffffffffffffffff1614611574576040517f08c379a000000000000000000000000000000000000000000000000000000000815260040161156b906139cd565b60405180910390fd5b565b8060046000848152602001908152602001600020908161159691906134d9565b50817f6bb7ff708619ba0610cba295a58592e0451dee2622938c8755667688daf3529b6115c2846105ce565b6040516115cf919061257a565b60405180910390a25050565b8060096000848152602001908152602001600020819055506000600a6000848152602001908152602001600020819055505050565b80600b6000848152602001908152602001600020819055505050565b6064811115611670576040517f08c379a000000000000000000000000000000000000000000000000000000000815260040161166790613a39565b60405180910390fd5b80600c6000848152602001908152602001600020819055505050565b6002600654036116d1576040517f08c379a00000000000000000000000000000000000000000000000000000000081526004016116c890613aa5565b60405180910390fd5b6002600681905550565b600073ffffffffffffffffffffffffffffffffffffffff168473ffffffffffffffffffffffffffffffffffffffff160361174a576040517f08c379a000000000000000000000000000000000000000000000000000000000815260040161174190613b37565b60405180910390fd5b60006117546111cf565b9050600061176185612058565b9050600061176e85612058565b905061177f83600089858589611e71565b8460008088815260200190815260200160002060008973ffffffffffffffffffffffffffffffffffffffff1673ffffffffffffffffffffffffffffffffffffffff16815260200190815260200160002060008282546117de9190613236565b925050819055508673ffffffffffffffffffffffffffffffffffffffff16600073ffffffffffffffffffffffffffffffffffffffff168473ffffffffffffffffffffffffffffffffffffffff167fc3d58168c5ae7397731d063d5bbf3d657854427343f4c083240f7aacaa2d0f62898960405161185c92919061367f565b60405180910390a461187383600089858589611e79565b611882836000898989896120d2565b50505050505050565b804710156118ce576040517f08c379a00000000000000000000000000000000000000000000000000000000081526004016118c590613ba3565b60405180910390fd5b60008273ffffffffffffffffffffffffffffffffffffffff16826040516118f490613bf4565b60006040518083038185875af1925050503d8060008114611931576040519150601f19603f3d011682016040523d82523d6000602084013e611936565b606091505b505090508061197a576040517f08c379a000000000000000000000000000000000000000000000000000000000815260040161197190613c7b565b60405180910390fd5b505050565b6001600681905550565b6000600560009054906101000a900473ffffffffffffffffffffffffffffffffffffffff16905081600560006101000a81548173ffffffffffffffffffffffffffffffffffffffff021916908373ffffffffffffffffffffffffffffffffffffffff1602179055508173ffffffffffffffffffffffffffffffffffffffff168173ffffffffffffffffffffffffffffffffffffffff167f8be0079c531659141344cd1fd0a4f28419497f9722a3daafe3b4186f6b6457e060405160405180910390a35050565b8173ffffffffffffffffffffffffffffffffffffffff168373ffffffffffffffffffffffffffffffffffffffff1603611abd576040517f08c379a0000000000000000000000000000000000000000000000000000000008152600401611ab490613d0d565b60405180910390fd5b80600160008573ffffffffffffffffffffffffffffffffffffffff1673ffffffffffffffffffffffffffffffffffffffff16815260200190815260200160002060008473ffffffffffffffffffffffffffffffffffffffff1673ffffffffffffffffffffffffffffffffffffffff16815260200190815260200160002060006101000a81548160ff0219169083151502179055508173ffffffffffffffffffffffffffffffffffffffff168373ffffffffffffffffffffffffffffffffffffffff167f17307eab39ab6107e8899845ad3d59bd9653f200f220920489ca2b5937696c3183604051611bae91906124a2565b60405180910390a3505050565b6000611bc760086122a9565b611bd160086122bf565b905090565b600073ffffffffffffffffffffffffffffffffffffffff168473ffffffffffffffffffffffffffffffffffffffff1603611c45576040517f08c379a0000000000000000000000000000000000000000000000000000000008152600401611c3c90613898565b60405180910390fd5b6000611c4f6111cf565b90506000611c5c85612058565b90506000611c6985612058565b9050611c79838989858589611e71565b600080600088815260200190815260200160002060008a73ffffffffffffffffffffffffffffffffffffffff1673ffffffffffffffffffffffffffffffffffffffff16815260200190815260200160002054905085811015611d10576040517f08c379a0000000000000000000000000000000000000000000000000000000008152600401611d079061392a565b60405180910390fd5b85810360008089815260200190815260200160002060008b73ffffffffffffffffffffffffffffffffffffffff1673ffffffffffffffffffffffffffffffffffffffff168152602001908152602001600020819055508560008089815260200190815260200160002060008a73ffffffffffffffffffffffffffffffffffffffff1673ffffffffffffffffffffffffffffffffffffffff1681526020019081526020016000206000828254611dc59190613236565b925050819055508773ffffffffffffffffffffffffffffffffffffffff168973ffffffffffffffffffffffffffffffffffffffff168573ffffffffffffffffffffffffffffffffffffffff167fc3d58168c5ae7397731d063d5bbf3d657854427343f4c083240f7aacaa2d0f628a8a604051611e4292919061367f565b60405180910390a4611e58848a8a86868a611e79565b611e66848a8a8a8a8a6120d2565b505050505050505050565b505050505050565b505050505050565b611ea08473ffffffffffffffffffffffffffffffffffffffff166122cd565b15612050578373ffffffffffffffffffffffffffffffffffffffff1663bc197c8187878686866040518663ffffffff1660e01b8152600401611ee6959493929190613d82565b6020604051808303816000875af1925050508015611f2257506040513d601f19601f82011682018060405250810190611f1f9190613dff565b60015b611fc757611f2e613e39565b806308c379a003611f8a5750611f42613e5b565b80611f4d5750611f8c565b806040517f08c379a0000000000000000000000000000000000000000000000000000000008152600401611f81919061257a565b60405180910390fd5b505b6040517f08c379a0000000000000000000000000000000000000000000000000000000008152600401611fbe90613f5d565b60405180910390fd5b63bc197c8160e01b7bffffffffffffffffffffffffffffffffffffffffffffffffffffffff1916817bffffffffffffffffffffffffffffffffffffffffffffffffffffffff19161461204e576040517f08c379a000000000000000000000000000000000000000000000000000000000815260040161204590613fef565b60405180910390fd5b505b505050505050565b60606000600167ffffffffffffffff811115612077576120766125a1565b5b6040519080825280602002602001820160405280156120a55781602001602082028036833780820191505090505b50905082816000815181106120bd576120bc613124565b5b60200260200101818152505080915050919050565b6120f18473ffffffffffffffffffffffffffffffffffffffff166122cd565b156122a1578373ffffffffffffffffffffffffffffffffffffffff1663f23a6e6187878686866040518663ffffffff1660e01b815260040161213795949392919061400f565b6020604051808303816000875af192505050801561217357506040513d601f19601f820116820180604052508101906121709190613dff565b60015b6122185761217f613e39565b806308c379a0036121db5750612193613e5b565b8061219e57506121dd565b806040517f08c379a00000000000000000000000000000000000000000000000000000000081526004016121d2919061257a565b60405180910390fd5b505b6040517f08c379a000000000000000000000000000000000000000000000000000000000815260040161220f90613f5d565b60405180910390fd5b63f23a6e6160e01b7bffffffffffffffffffffffffffffffffffffffffffffffffffffffff1916817bffffffffffffffffffffffffffffffffffffffffffffffffffffffff19161461229f576040517f08c379a000000000000000000000000000000000000000000000000000000000815260040161229690613fef565b60405180910390fd5b505b505050505050565b6001816000016000828254019250508190555050565b600081600001549050919050565b6000808273ffffffffffffffffffffffffffffffffffffffff163b119050919050565b6000604051905090565b600080fd5b600080fd5b600073ffffffffffffffffffffffffffffffffffffffff82169050919050565b600061232f82612304565b9050919050565b61233f81612324565b811461234a57600080fd5b50565b60008135905061235c81612336565b92915050565b6000819050919050565b61237581612362565b811461238057600080fd5b50565b6000813590506123928161236c565b92915050565b600080604083850312156123af576123ae6122fa565b5b60006123bd8582860161234d565b92505060206123ce85828601612383565b9150509250929050565b6123e181612362565b82525050565b60006020820190506123fc60008301846123d8565b92915050565b60007fffffffff0000000000000000000000000000000000000000000000000000000082169050919050565b61243781612402565b811461244257600080fd5b50565b6000813590506124548161242e565b92915050565b6000602082840312156124705761246f6122fa565b5b600061247e84828501612445565b91505092915050565b60008115159050919050565b61249c81612487565b82525050565b60006020820190506124b76000830184612493565b92915050565b6000602082840312156124d3576124d26122fa565b5b60006124e184828501612383565b91505092915050565b600081519050919050565b600082825260208201905092915050565b60005b83811015612524578082015181840152602081019050612509565b60008484015250505050565b6000601f19601f8301169050919050565b600061254c826124ea565b61255681856124f5565b9350612566818560208601612506565b61256f81612530565b840191505092915050565b600060208201905081810360008301526125948184612541565b905092915050565b600080fd5b7f4e487b7100000000000000000000000000000000000000000000000000000000600052604160045260246000fd5b6125d982612530565b810181811067ffffffffffffffff821117156125f8576125f76125a1565b5b80604052505050565b600061260b6122f0565b905061261782826125d0565b919050565b600067ffffffffffffffff821115612637576126366125a1565b5b602082029050602081019050919050565b600080fd5b600061266061265b8461261c565b612601565b9050808382526020820190506020840283018581111561268357612682612648565b5b835b818110156126ac57806126988882612383565b845260208401935050602081019050612685565b5050509392505050565b600082601f8301126126cb576126ca61259c565b5b81356126db84826020860161264d565b91505092915050565b600080fd5b600067ffffffffffffffff821115612704576127036125a1565b5b61270d82612530565b9050602081019050919050565b82818337600083830152505050565b600061273c612737846126e9565b612601565b905082815260208101848484011115612758576127576126e4565b5b61276384828561271a565b509392505050565b600082601f8301126127805761277f61259c565b5b8135612790848260208601612729565b91505092915050565b600080600080600060a086880312156127b5576127b46122fa565b5b60006127c38882890161234d565b95505060206127d48882890161234d565b945050604086013567ffffffffffffffff8111156127f5576127f46122ff565b5b612801888289016126b6565b935050606086013567ffffffffffffffff811115612822576128216122ff565b5b61282e888289016126b6565b925050608086013567ffffffffffffffff81111561284f5761284e6122ff565b5b61285b8882890161276b565b9150509295509295909350565b600067ffffffffffffffff821115612883576128826125a1565b5b61288c82612530565b9050602081019050919050565b60006128ac6128a784612868565b612601565b9050828152602081018484840111156128c8576128c76126e4565b5b6128d384828561271a565b509392505050565b600082601f8301126128f0576128ef61259c565b5b8135612900848260208601612899565b91505092915050565b60008060008060808587031215612923576129226122fa565b5b600085013567ffffffffffffffff811115612941576129406122ff565b5b61294d878288016128db565b945050602061295e87828801612383565b935050604061296f87828801612383565b925050606061298087828801612383565b91505092959194509250565b600067ffffffffffffffff8211156129a7576129a66125a1565b5b602082029050602081019050919050565b60006129cb6129c68461298c565b612601565b905080838252602082019050602084028301858111156129ee576129ed612648565b5b835b81811015612a175780612a03888261234d565b8452602084019350506020810190506129f0565b5050509392505050565b600082601f830112612a3657612a3561259c565b5b8135612a468482602086016129b8565b91505092915050565b60008060408385031215612a6657612a656122fa565b5b600083013567ffffffffffffffff811115612a8457612a836122ff565b5b612a9085828601612a21565b925050602083013567ffffffffffffffff811115612ab157612ab06122ff565b5b612abd858286016126b6565b9150509250929050565b600081519050919050565b600082825260208201905092915050565b6000819050602082019050919050565b612afc81612362565b82525050565b6000612b0e8383612af3565b60208301905092915050565b6000602082019050919050565b6000612b3282612ac7565b612b3c8185612ad2565b9350612b4783612ae3565b8060005b83811015612b78578151612b5f8882612b02565b9750612b6a83612b1a565b925050600181019050612b4b565b5085935050505092915050565b60006020820190508181036000830152612b9f8184612b27565b905092915050565b600060208284031215612bbd57612bbc6122fa565b5b600082013567ffffffffffffffff811115612bdb57612bda6122ff565b5b612be7848285016128db565b91505092915050565b60008060408385031215612c0757612c066122fa565b5b6000612c1585828601612383565b9250506020612c2685828601612383565b9150509250929050565b612c3981612324565b82525050565b6000602082019050612c546000830184612c30565b92915050565b612c6381612487565b8114612c6e57600080fd5b50565b600081359050612c8081612c5a565b92915050565b60008060408385031215612c9d57612c9c6122fa565b5b6000612cab8582860161234d565b9250506020612cbc85828601612c71565b9150509250929050565b60008060408385031215612cdd57612cdc6122fa565b5b6000612ceb8582860161234d565b9250506020612cfc8582860161234d565b9150509250929050565b600080600080600060a08688031215612d2257612d216122fa565b5b6000612d308882890161234d565b9550506020612d418882890161234d565b9450506040612d5288828901612383565b9350506060612d6388828901612383565b925050608086013567ffffffffffffffff811115612d8457612d836122ff565b5b612d908882890161276b565b9150509295509295909350565b600060208284031215612db357612db26122fa565b5b6000612dc18482850161234d565b91505092915050565b7f455243313135353a2061646472657373207a65726f206973206e6f742061207660008201527f616c6964206f776e657200000000000000000000000000000000000000000000602082015250565b6000612e26602a836124f5565b9150612e3182612dca565b604082019050919050565b60006020820190508181036000830152612e5581612e19565b9050919050565b7f4e487b7100000000000000000000000000000000000000000000000000000000600052602260045260246000fd5b60006002820490506001821680612ea357607f821691505b602082108103612eb657612eb5612e5c565b5b50919050565b600081905092915050565b60008190508160005260206000209050919050565b60008154612ee981612e8b565b612ef38186612ebc565b94506001821660008114612f0e5760018114612f2357612f56565b60ff1983168652811515820286019350612f56565b612f2c85612ec7565b60005b83811015612f4e57815481890152600182019150602081019050612f2f565b838801955050505b50505092915050565b6000612f6a826124ea565b612f748185612ebc565b9350612f84818560208601612506565b80840191505092915050565b6000612f9c8285612edc565b9150612fa88284612f5f565b91508190509392505050565b7f455243313135353a2063616c6c6572206973206e6f7420746f6b656e206f776e60008201527f6572206f7220617070726f766564000000000000000000000000000000000000602082015250565b6000613010602e836124f5565b915061301b82612fb4565b604082019050919050565b6000602082019050818103600083015261303f81613003565b9050919050565b600060808201905081810360008301526130608187612541565b905061306f60208301866123d8565b61307c60408301856123d8565b61308960608301846123d8565b95945050505050565b7f455243313135353a206163636f756e747320616e6420696473206c656e67746860008201527f206d69736d617463680000000000000000000000000000000000000000000000602082015250565b60006130ee6029836124f5565b91506130f982613092565b604082019050919050565b6000602082019050818103600083015261311d816130e1565b9050919050565b7f4e487b7100000000000000000000000000000000000000000000000000000000600052603260045260246000fd5b7f4e487b7100000000000000000000000000000000000000000000000000000000600052601160045260246000fd5b600061318d82612362565b91507fffffffffffffffffffffffffffffffffffffffffffffffffffffffffffffffff82036131bf576131be613153565b5b600182019050919050565b7f416c7265616479206d696e7465642061206d656d626572736869700000000000600082015250565b6000613200601b836124f5565b915061320b826131ca565b602082019050919050565b6000602082019050818103600083015261322f816131f3565b9050919050565b600061324182612362565b915061324c83612362565b925082820190508082111561326457613263613153565b5b92915050565b7f457863656564696e67206d617820737570706c79000000000000000000000000600082015250565b60006132a06014836124f5565b91506132ab8261326a565b602082019050919050565b600060208201905081810360008301526132cf81613293565b9050919050565b7f496e636f727265637420616d6f756e742073656e740000000000000000000000600082015250565b600061330c6015836124f5565b9150613317826132d6565b602082019050919050565b6000602082019050818103600083015261333b816132ff565b9050919050565b60006020601f8301049050919050565b600082821b905092915050565b60006008830261338f7fffffffffffffffffffffffffffffffffffffffffffffffffffffffffffffffff82613352565b6133998683613352565b95508019841693508086168417925050509392505050565b6000819050919050565b60006133d66133d16133cc84612362565b6133b1565b612362565b9050919050565b6000819050919050565b6133f0836133bb565b6134046133fc826133dd565b84845461335f565b825550505050565b600090565b61341961340c565b6134248184846133e7565b505050565b5b818110156134485761343d600082613411565b60018101905061342a565b5050565b601f82111561348d5761345e81612ec7565b61346784613342565b81016020851015613476578190505b61348a61348285613342565b830182613429565b50505b505050565b600082821c905092915050565b60006134b060001984600802613492565b1980831691505092915050565b60006134c9838361349f565b9150826002028217905092915050565b6134e2826124ea565b67ffffffffffffffff8111156134fb576134fa6125a1565b5b6135058254612e8b565b61351082828561344c565b600060209050601f8311600181146135435760008415613531578287015190505b61353b85826134bd565b8655506135a3565b601f19841661355186612ec7565b60005b8281101561357957848901518255600182019150602085019450602081019050613554565b868310156135965784890151613592601f89168261349f565b8355505b6001600288020188555050505b505050505050565b7f4d7573742062652061206d656d62657220746f206d696e74207468697320656460008201527f6974696f6e000000000000000000000000000000000000000000000000000000602082015250565b60006136076025836124f5565b9150613612826135ab565b604082019050919050565b60006020820190508181036000830152613636816135fa565b9050919050565b600061364882612362565b915061365383612362565b925082820261366181612362565b9150828204841483151761367857613677613153565b5b5092915050565b600060408201905061369460008301856123d8565b6136a160208301846123d8565b9392505050565b600060a0820190506136bd60008301886123d8565b81810360208301526136cf8187612541565b90506136de60408301866123d8565b6136eb60608301856123d8565b6136f860808301846123d8565b9695505050505050565b7f4f776e61626c653a206e6577206f776e657220697320746865207a65726f206160008201527f6464726573730000000000000000000000000000000000000000000000000000602082015250565b600061375e6026836124f5565b915061376982613702565b604082019050919050565b6000602082019050818103600083015261378d81613751565b9050919050565b7f455243313135353a2069647320616e6420616d6f756e7473206c656e6774682060008201527f6d69736d61746368000000000000000000000000000000000000000000000000602082015250565b60006137f06028836124f5565b91506137fb82613794565b604082019050919050565b6000602082019050818103600083015261381f816137e3565b9050919050565b7f455243313135353a207472616e7366657220746f20746865207a65726f20616460008201527f6472657373000000000000000000000000000000000000000000000000000000602082015250565b60006138826025836124f5565b915061388d82613826565b604082019050919050565b600060208201905081810360008301526138b181613875565b9050919050565b7f455243313135353a20696e73756666696369656e742062616c616e636520666f60008201527f72207472616e7366657200000000000000000000000000000000000000000000602082015250565b6000613914602a836124f5565b915061391f826138b8565b604082019050919050565b6000602082019050818103600083015261394381613907565b9050919050565b600060408201905081810360008301526139648185612b27565b905081810360208301526139788184612b27565b90509392505050565b7f4f776e61626c653a2063616c6c6572206973206e6f7420746865206f776e6572600082015250565b60006139b76020836124f5565b91506139c282613981565b602082019050919050565b600060208201905081810360008301526139e6816139aa565b9050919050565b7f526f79616c74792063616e6e6f74206265206d6f7265207468616e2031303025600082015250565b6000613a236020836124f5565b9150613a2e826139ed565b602082019050919050565b60006020820190508181036000830152613a5281613a16565b9050919050565b7f5265656e7472616e637947756172643a207265656e7472616e742063616c6c00600082015250565b6000613a8f601f836124f5565b9150613a9a82613a59565b602082019050919050565b60006020820190508181036000830152613abe81613a82565b9050919050565b7f455243313135353a206d696e7420746f20746865207a65726f2061646472657360008201527f7300000000000000000000000000000000000000000000000000000000000000602082015250565b6000613b216021836124f5565b9150613b2c82613ac5565b604082019050919050565b60006020820190508181036000830152613b5081613b14565b9050919050565b7f416464726573733a20696e73756666696369656e742062616c616e6365000000600082015250565b6000613b8d601d836124f5565b9150613b9882613b57565b602082019050919050565b60006020820190508181036000830152613bbc81613b80565b9050919050565b600081905092915050565b50565b6000613bde600083613bc3565b9150613be982613bce565b600082019050919050565b6000613bff82613bd1565b9150819050919050565b7f416464726573733a20756e61626c6520746f2073656e642076616c75652c207260008201527f6563697069656e74206d61792068617665207265766572746564000000000000602082015250565b6000613c65603a836124f5565b9150613c7082613c09565b604082019050919050565b60006020820190508181036000830152613c9481613c58565b9050919050565b7f455243313135353a2073657474696e6720617070726f76616c2073746174757360008201527f20666f722073656c660000000000000000000000000000000000000000000000602082015250565b6000613cf76029836124f5565b9150613d0282613c9b565b604082019050919050565b60006020820190508181036000830152613d2681613cea565b9050919050565b600081519050919050565b600082825260208201905092915050565b6000613d5482613d2d565b613d5e8185613d38565b9350613d6e818560208601612506565b613d7781612530565b840191505092915050565b600060a082019050613d976000830188612c30565b613da46020830187612c30565b8181036040830152613db68186612b27565b90508181036060830152613dca8185612b27565b90508181036080830152613dde8184613d49565b90509695505050505050565b600081519050613df98161242e565b92915050565b600060208284031215613e1557613e146122fa565b5b6000613e2384828501613dea565b91505092915050565b60008160e01c9050919050565b600060033d1115613e585760046000803e613e55600051613e2c565b90505b90565b600060443d10613ee857613e6d6122f0565b60043d036004823e80513d602482011167ffffffffffffffff82111715613e95575050613ee8565b808201805167ffffffffffffffff811115613eb35750505050613ee8565b80602083010160043d038501811115613ed0575050505050613ee8565b613edf826020018501866125d0565b82955050505050505b90565b7f455243313135353a207472616e7366657220746f206e6f6e2d4552433131353560008201527f526563656976657220696d706c656d656e746572000000000000000000000000602082015250565b6000613f476034836124f5565b9150613f5282613eeb565b604082019050919050565b60006020820190508181036000830152613f7681613f3a565b9050919050565b7f455243313135353a204552433131353552656365697665722072656a6563746560008201527f6420746f6b656e73000000000000000000000000000000000000000000000000602082015250565b6000613fd96028836124f5565b9150613fe482613f7d565b604082019050919050565b6000602082019050818103600083015261400881613fcc565b9050919050565b600060a0820190506140246000830188612c30565b6140316020830187612c30565b61403e60408301866123d8565b61404b60608301856123d8565b818103608083015261405d8184613d49565b9050969550505050505056fea264697066735822122012bc4f564799476e65e5c3b8b9a3298af2384c9444e56e87f95473abb09033fc64736f6c63430008120033",
  "linkReferences": {},
  "deployedLinkReferences": {}
}